{
  "contractName": "NFT",
  "abi": [
    {
      "inputs": [
        {
          "internalType": "string",
          "name": "_name",
          "type": "string"
        },
        {
          "internalType": "string",
          "name": "_symbol",
          "type": "string"
        },
        {
          "internalType": "string",
          "name": "_initBaseURI",
          "type": "string"
        }
      ],
      "stateMutability": "nonpayable",
      "type": "constructor"
    },
    {
      "anonymous": false,
      "inputs": [
        {
          "indexed": true,
          "internalType": "address",
          "name": "owner",
          "type": "address"
        },
        {
          "indexed": true,
          "internalType": "address",
          "name": "approved",
          "type": "address"
        },
        {
          "indexed": true,
          "internalType": "uint256",
          "name": "tokenId",
          "type": "uint256"
        }
      ],
      "name": "Approval",
      "type": "event"
    },
    {
      "anonymous": false,
      "inputs": [
        {
          "indexed": true,
          "internalType": "address",
          "name": "owner",
          "type": "address"
        },
        {
          "indexed": true,
          "internalType": "address",
          "name": "operator",
          "type": "address"
        },
        {
          "indexed": false,
          "internalType": "bool",
          "name": "approved",
          "type": "bool"
        }
      ],
      "name": "ApprovalForAll",
      "type": "event"
    },
    {
      "anonymous": false,
      "inputs": [
        {
          "indexed": true,
          "internalType": "address",
          "name": "previousOwner",
          "type": "address"
        },
        {
          "indexed": true,
          "internalType": "address",
          "name": "newOwner",
          "type": "address"
        }
      ],
      "name": "OwnershipTransferred",
      "type": "event"
    },
    {
      "anonymous": false,
      "inputs": [
        {
          "indexed": true,
          "internalType": "address",
          "name": "from",
          "type": "address"
        },
        {
          "indexed": true,
          "internalType": "address",
          "name": "to",
          "type": "address"
        },
        {
          "indexed": true,
          "internalType": "uint256",
          "name": "tokenId",
          "type": "uint256"
        }
      ],
      "name": "Transfer",
      "type": "event"
    },
    {
      "inputs": [
        {
          "internalType": "address",
          "name": "to",
          "type": "address"
        },
        {
          "internalType": "uint256",
          "name": "tokenId",
          "type": "uint256"
        }
      ],
      "name": "approve",
      "outputs": [],
      "stateMutability": "nonpayable",
      "type": "function"
    },
    {
      "inputs": [
        {
          "internalType": "address",
          "name": "owner",
          "type": "address"
        }
      ],
      "name": "balanceOf",
      "outputs": [
        {
          "internalType": "uint256",
          "name": "",
          "type": "uint256"
        }
      ],
      "stateMutability": "view",
      "type": "function",
      "constant": true
    },
    {
      "inputs": [],
      "name": "baseExtension",
      "outputs": [
        {
          "internalType": "string",
          "name": "",
          "type": "string"
        }
      ],
      "stateMutability": "view",
      "type": "function",
      "constant": true
    },
    {
      "inputs": [],
      "name": "baseURI",
      "outputs": [
        {
          "internalType": "string",
          "name": "",
          "type": "string"
        }
      ],
      "stateMutability": "view",
      "type": "function",
      "constant": true
    },
    {
      "inputs": [],
      "name": "cost",
      "outputs": [
        {
          "internalType": "uint256",
          "name": "",
          "type": "uint256"
        }
      ],
      "stateMutability": "view",
      "type": "function",
      "constant": true
    },
    {
      "inputs": [
        {
          "internalType": "uint256",
          "name": "tokenId",
          "type": "uint256"
        }
      ],
      "name": "getApproved",
      "outputs": [
        {
          "internalType": "address",
          "name": "",
          "type": "address"
        }
      ],
      "stateMutability": "view",
      "type": "function",
      "constant": true
    },
    {
      "inputs": [
        {
          "internalType": "address",
          "name": "owner",
          "type": "address"
        },
        {
          "internalType": "address",
          "name": "operator",
          "type": "address"
        }
      ],
      "name": "isApprovedForAll",
      "outputs": [
        {
          "internalType": "bool",
          "name": "",
          "type": "bool"
        }
      ],
      "stateMutability": "view",
      "type": "function",
      "constant": true
    },
    {
      "inputs": [],
      "name": "maxMintAmount",
      "outputs": [
        {
          "internalType": "uint256",
          "name": "",
          "type": "uint256"
        }
      ],
      "stateMutability": "view",
      "type": "function",
      "constant": true
    },
    {
      "inputs": [],
      "name": "maxSupply",
      "outputs": [
        {
          "internalType": "uint256",
          "name": "",
          "type": "uint256"
        }
      ],
      "stateMutability": "view",
      "type": "function",
      "constant": true
    },
    {
      "inputs": [],
      "name": "name",
      "outputs": [
        {
          "internalType": "string",
          "name": "",
          "type": "string"
        }
      ],
      "stateMutability": "view",
      "type": "function",
      "constant": true
    },
    {
      "inputs": [],
      "name": "owner",
      "outputs": [
        {
          "internalType": "address",
          "name": "",
          "type": "address"
        }
      ],
      "stateMutability": "view",
      "type": "function",
      "constant": true
    },
    {
      "inputs": [
        {
          "internalType": "uint256",
          "name": "tokenId",
          "type": "uint256"
        }
      ],
      "name": "ownerOf",
      "outputs": [
        {
          "internalType": "address",
          "name": "",
          "type": "address"
        }
      ],
      "stateMutability": "view",
      "type": "function",
      "constant": true
    },
    {
      "inputs": [],
      "name": "paused",
      "outputs": [
        {
          "internalType": "bool",
          "name": "",
          "type": "bool"
        }
      ],
      "stateMutability": "view",
      "type": "function",
      "constant": true
    },
    {
      "inputs": [],
      "name": "renounceOwnership",
      "outputs": [],
      "stateMutability": "nonpayable",
      "type": "function"
    },
    {
      "inputs": [
        {
          "internalType": "address",
          "name": "from",
          "type": "address"
        },
        {
          "internalType": "address",
          "name": "to",
          "type": "address"
        },
        {
          "internalType": "uint256",
          "name": "tokenId",
          "type": "uint256"
        }
      ],
      "name": "safeTransferFrom",
      "outputs": [],
      "stateMutability": "nonpayable",
      "type": "function"
    },
    {
      "inputs": [
        {
          "internalType": "address",
          "name": "from",
          "type": "address"
        },
        {
          "internalType": "address",
          "name": "to",
          "type": "address"
        },
        {
          "internalType": "uint256",
          "name": "tokenId",
          "type": "uint256"
        },
        {
          "internalType": "bytes",
          "name": "data",
          "type": "bytes"
        }
      ],
      "name": "safeTransferFrom",
      "outputs": [],
      "stateMutability": "nonpayable",
      "type": "function"
    },
    {
      "inputs": [
        {
          "internalType": "address",
          "name": "operator",
          "type": "address"
        },
        {
          "internalType": "bool",
          "name": "approved",
          "type": "bool"
        }
      ],
      "name": "setApprovalForAll",
      "outputs": [],
      "stateMutability": "nonpayable",
      "type": "function"
    },
    {
      "inputs": [
        {
          "internalType": "bytes4",
          "name": "interfaceId",
          "type": "bytes4"
        }
      ],
      "name": "supportsInterface",
      "outputs": [
        {
          "internalType": "bool",
          "name": "",
          "type": "bool"
        }
      ],
      "stateMutability": "view",
      "type": "function",
      "constant": true
    },
    {
      "inputs": [],
      "name": "symbol",
      "outputs": [
        {
          "internalType": "string",
          "name": "",
          "type": "string"
        }
      ],
      "stateMutability": "view",
      "type": "function",
      "constant": true
    },
    {
      "inputs": [
        {
          "internalType": "uint256",
          "name": "index",
          "type": "uint256"
        }
      ],
      "name": "tokenByIndex",
      "outputs": [
        {
          "internalType": "uint256",
          "name": "",
          "type": "uint256"
        }
      ],
      "stateMutability": "view",
      "type": "function",
      "constant": true
    },
    {
      "inputs": [
        {
          "internalType": "address",
          "name": "owner",
          "type": "address"
        },
        {
          "internalType": "uint256",
          "name": "index",
          "type": "uint256"
        }
      ],
      "name": "tokenOfOwnerByIndex",
      "outputs": [
        {
          "internalType": "uint256",
          "name": "",
          "type": "uint256"
        }
      ],
      "stateMutability": "view",
      "type": "function",
      "constant": true
    },
    {
      "inputs": [],
      "name": "totalSupply",
      "outputs": [
        {
          "internalType": "uint256",
          "name": "",
          "type": "uint256"
        }
      ],
      "stateMutability": "view",
      "type": "function",
      "constant": true
    },
    {
      "inputs": [
        {
          "internalType": "address",
          "name": "from",
          "type": "address"
        },
        {
          "internalType": "address",
          "name": "to",
          "type": "address"
        },
        {
          "internalType": "uint256",
          "name": "tokenId",
          "type": "uint256"
        }
      ],
      "name": "transferFrom",
      "outputs": [],
      "stateMutability": "nonpayable",
      "type": "function"
    },
    {
      "inputs": [
        {
          "internalType": "address",
          "name": "newOwner",
          "type": "address"
        }
      ],
      "name": "transferOwnership",
      "outputs": [],
      "stateMutability": "nonpayable",
      "type": "function"
    },
    {
      "inputs": [
        {
          "internalType": "address",
          "name": "",
          "type": "address"
        }
      ],
      "name": "whitelisted",
      "outputs": [
        {
          "internalType": "bool",
          "name": "",
          "type": "bool"
        }
      ],
      "stateMutability": "view",
      "type": "function",
      "constant": true
    },
    {
      "inputs": [
        {
          "internalType": "address",
          "name": "_to",
          "type": "address"
        },
        {
          "internalType": "uint256",
          "name": "_mintAmount",
          "type": "uint256"
        }
      ],
      "name": "mint",
      "outputs": [],
      "stateMutability": "payable",
      "type": "function",
      "payable": true
    },
    {
      "inputs": [
        {
          "internalType": "address",
          "name": "_owner",
          "type": "address"
        }
      ],
      "name": "walletOfOwner",
      "outputs": [
        {
          "internalType": "uint256[]",
          "name": "",
          "type": "uint256[]"
        }
      ],
      "stateMutability": "view",
      "type": "function",
      "constant": true
    },
    {
      "inputs": [
        {
          "internalType": "uint256",
          "name": "tokenId",
          "type": "uint256"
        }
      ],
      "name": "tokenURI",
      "outputs": [
        {
          "internalType": "string",
          "name": "",
          "type": "string"
        }
      ],
      "stateMutability": "view",
      "type": "function",
      "constant": true
    },
    {
      "inputs": [
        {
          "internalType": "uint256",
          "name": "_newCost",
          "type": "uint256"
        }
      ],
      "name": "setCost",
      "outputs": [],
      "stateMutability": "nonpayable",
      "type": "function"
    },
    {
      "inputs": [
        {
          "internalType": "uint256",
          "name": "_newmaxMintAmount",
          "type": "uint256"
        }
      ],
      "name": "setmaxMintAmount",
      "outputs": [],
      "stateMutability": "nonpayable",
      "type": "function"
    },
    {
      "inputs": [
        {
          "internalType": "string",
          "name": "_newBaseURI",
          "type": "string"
        }
      ],
      "name": "setBaseURI",
      "outputs": [],
      "stateMutability": "nonpayable",
      "type": "function"
    },
    {
      "inputs": [
        {
          "internalType": "string",
          "name": "_newBaseExtension",
          "type": "string"
        }
      ],
      "name": "setBaseExtension",
      "outputs": [],
      "stateMutability": "nonpayable",
      "type": "function"
    },
    {
      "inputs": [
        {
          "internalType": "bool",
          "name": "_state",
          "type": "bool"
        }
      ],
      "name": "pause",
      "outputs": [],
      "stateMutability": "nonpayable",
      "type": "function"
    },
    {
      "inputs": [
        {
          "internalType": "address",
          "name": "_user",
          "type": "address"
        }
      ],
      "name": "whitelistUser",
      "outputs": [],
      "stateMutability": "nonpayable",
      "type": "function"
    },
    {
      "inputs": [
        {
          "internalType": "address",
          "name": "_user",
          "type": "address"
        }
      ],
      "name": "removeWhitelistUser",
      "outputs": [],
      "stateMutability": "nonpayable",
      "type": "function"
    }
  ],
  "bytecode": "0x60806040526040518060400160405280600581526020017f2e6a736f6e000000000000000000000000000000000000000000000000000000815250600c90816200004a9190620010c4565b5066b1a2bc2ec50000600d55612710600e556014600f556000601060006101000a81548160ff0219169083151502179055503480156200008957600080fd5b506040516200592b3803806200592b8339818101604052810190620000af91906200130f565b82828160009081620000c29190620010c4565b508060019081620000d49190620010c4565b505050620000f7620000eb6200012460201b60201c565b6200012c60201b60201c565b6200010881620001f260201b60201c565b6200011b3360016200021760201b60201c565b505050620019a6565b600033905090565b6000600a60009054906101000a900473ffffffffffffffffffffffffffffffffffffffff16905081600a60006101000a81548173ffffffffffffffffffffffffffffffffffffffff021916908373ffffffffffffffffffffffffffffffffffffffff1602179055508173ffffffffffffffffffffffffffffffffffffffff168173ffffffffffffffffffffffffffffffffffffffff167f8be0079c531659141344cd1fd0a4f28419497f9722a3daafe3b4186f6b6457e060405160405180910390a35050565b620002026200038660201b60201c565b80600b9081620002139190620010c4565b5050565b6000620002296200041760201b60201c565b9050601060009054906101000a900460ff16156200024657600080fd5b600082116200025457600080fd5b600f548211156200026457600080fd5b600e548282620002759190620013f7565b11156200028157600080fd5b620002916200042460201b60201c565b73ffffffffffffffffffffffffffffffffffffffff163373ffffffffffffffffffffffffffffffffffffffff16146200033c5760011515601160003373ffffffffffffffffffffffffffffffffffffffff1673ffffffffffffffffffffffffffffffffffffffff16815260200190815260200160002060009054906101000a900460ff161515146200033b5781600d546200032d919062001432565b3410156200033a57600080fd5b5b5b6000600190505b82811162000380576200036a8482846200035e9190620013f7565b6200044e60201b60201c565b8080620003779062001493565b91505062000343565b50505050565b620003966200012460201b60201c565b73ffffffffffffffffffffffffffffffffffffffff16620003bc6200042460201b60201c565b73ffffffffffffffffffffffffffffffffffffffff161462000415576040517f08c379a00000000000000000000000000000000000000000000000000000000081526004016200040c9062001541565b60405180910390fd5b565b6000600880549050905090565b6000600a60009054906101000a900473ffffffffffffffffffffffffffffffffffffffff16905090565b620004708282604051806020016040528060008152506200047460201b60201c565b5050565b620004868383620004e260201b60201c565b6200049b6000848484620006db60201b60201c565b620004dd576040517f08c379a0000000000000000000000000000000000000000000000000000000008152600401620004d490620015d9565b60405180910390fd5b505050565b600073ffffffffffffffffffffffffffffffffffffffff168273ffffffffffffffffffffffffffffffffffffffff160362000554576040517f08c379a00000000000000000000000000000000000000000000000000000000081526004016200054b906200164b565b60405180910390fd5b62000565816200088460201b60201c565b15620005a8576040517f08c379a00000000000000000000000000000000000000000000000000000000081526004016200059f90620016bd565b60405180910390fd5b620005bc60008383620008f060201b60201c565b6001600360008473ffffffffffffffffffffffffffffffffffffffff1673ffffffffffffffffffffffffffffffffffffffff16815260200190815260200160002060008282546200060e9190620013f7565b92505081905550816002600083815260200190815260200160002060006101000a81548173ffffffffffffffffffffffffffffffffffffffff021916908373ffffffffffffffffffffffffffffffffffffffff160217905550808273ffffffffffffffffffffffffffffffffffffffff16600073ffffffffffffffffffffffffffffffffffffffff167fddf252ad1be2c89b69c2b068fc378daa952ba7f163c4a11628f55a4df523b3ef60405160405180910390a4620006d76000838362000a3560201b60201c565b5050565b6000620007098473ffffffffffffffffffffffffffffffffffffffff1662000a3a60201b620015781760201c565b1562000877578373ffffffffffffffffffffffffffffffffffffffff1663150b7a026200073b6200012460201b60201c565b8786866040518563ffffffff1660e01b81526004016200075f949392919062001792565b6020604051808303816000875af19250505080156200079e57506040513d601f19601f820116820180604052508101906200079b919062001843565b60015b62000826573d8060008114620007d1576040519150601f19603f3d011682016040523d82523d6000602084013e620007d6565b606091505b5060008151036200081e576040517f08c379a00000000000000000000000000000000000000000000000000000000081526004016200081590620015d9565b60405180910390fd5b805181602001fd5b63150b7a0260e01b7bffffffffffffffffffffffffffffffffffffffffffffffffffffffff1916817bffffffffffffffffffffffffffffffffffffffffffffffffffffffff1916149150506200087c565b600190505b949350505050565b60008073ffffffffffffffffffffffffffffffffffffffff166002600084815260200190815260200160002060009054906101000a900473ffffffffffffffffffffffffffffffffffffffff1673ffffffffffffffffffffffffffffffffffffffff1614159050919050565b6200090883838362000a5d60201b6200159b1760201c565b600073ffffffffffffffffffffffffffffffffffffffff168373ffffffffffffffffffffffffffffffffffffffff160362000954576200094e8162000a6260201b60201c565b6200099c565b8173ffffffffffffffffffffffffffffffffffffffff168373ffffffffffffffffffffffffffffffffffffffff16146200099b576200099a838262000aab60201b60201c565b5b5b600073ffffffffffffffffffffffffffffffffffffffff168273ffffffffffffffffffffffffffffffffffffffff1603620009e857620009e28162000c2860201b60201c565b62000a30565b8273ffffffffffffffffffffffffffffffffffffffff168273ffffffffffffffffffffffffffffffffffffffff161462000a2f5762000a2e828262000d0460201b60201c565b5b5b505050565b505050565b6000808273ffffffffffffffffffffffffffffffffffffffff163b119050919050565b505050565b6008805490506009600083815260200190815260200160002081905550600881908060018154018082558091505060019003906000526020600020016000909190919091505550565b6000600162000ac58462000d9060201b620010d71760201c565b62000ad1919062001875565b905060006007600084815260200190815260200160002054905081811462000bb7576000600660008673ffffffffffffffffffffffffffffffffffffffff1673ffffffffffffffffffffffffffffffffffffffff168152602001908152602001600020600084815260200190815260200160002054905080600660008773ffffffffffffffffffffffffffffffffffffffff1673ffffffffffffffffffffffffffffffffffffffff168152602001908152602001600020600084815260200190815260200160002081905550816007600083815260200190815260200160002081905550505b6007600084815260200190815260200160002060009055600660008573ffffffffffffffffffffffffffffffffffffffff1673ffffffffffffffffffffffffffffffffffffffff16815260200190815260200160002060008381526020019081526020016000206000905550505050565b6000600160088054905062000c3e919062001875565b905060006009600084815260200190815260200160002054905060006008838154811062000c715762000c70620018b0565b5b90600052602060002001549050806008838154811062000c965762000c95620018b0565b5b90600052602060002001819055508160096000838152602001908152602001600020819055506009600085815260200190815260200160002060009055600880548062000ce85762000ce7620018df565b5b6001900381819060005260206000200160009055905550505050565b600062000d1c8362000d9060201b620010d71760201c565b905081600660008573ffffffffffffffffffffffffffffffffffffffff1673ffffffffffffffffffffffffffffffffffffffff168152602001908152602001600020600083815260200190815260200160002081905550806007600084815260200190815260200160002081905550505050565b60008073ffffffffffffffffffffffffffffffffffffffff168273ffffffffffffffffffffffffffffffffffffffff160362000e03576040517f08c379a000000000000000000000000000000000000000000000000000000000815260040162000dfa9062001984565b60405180910390fd5b600360008373ffffffffffffffffffffffffffffffffffffffff1673ffffffffffffffffffffffffffffffffffffffff168152602001908152602001600020549050919050565b600081519050919050565b7f4e487b7100000000000000000000000000000000000000000000000000000000600052604160045260246000fd5b7f4e487b7100000000000000000000000000000000000000000000000000000000600052602260045260246000fd5b6000600282049050600182168062000ecc57607f821691505b60208210810362000ee25762000ee162000e84565b5b50919050565b60008190508160005260206000209050919050565b60006020601f8301049050919050565b600082821b905092915050565b60006008830262000f4c7fffffffffffffffffffffffffffffffffffffffffffffffffffffffffffffffff8262000f0d565b62000f58868362000f0d565b95508019841693508086168417925050509392505050565b6000819050919050565b6000819050919050565b600062000fa562000f9f62000f998462000f70565b62000f7a565b62000f70565b9050919050565b6000819050919050565b62000fc18362000f84565b62000fd962000fd08262000fac565b84845462000f1a565b825550505050565b600090565b62000ff062000fe1565b62000ffd81848462000fb6565b505050565b5b8181101562001025576200101960008262000fe6565b60018101905062001003565b5050565b601f82111562001074576200103e8162000ee8565b620010498462000efd565b8101602085101562001059578190505b62001071620010688562000efd565b83018262001002565b50505b505050565b600082821c905092915050565b6000620010996000198460080262001079565b1980831691505092915050565b6000620010b4838362001086565b9150826002028217905092915050565b620010cf8262000e4a565b67ffffffffffffffff811115620010eb57620010ea62000e55565b5b620010f7825462000eb3565b6200110482828562001029565b600060209050601f8311600181146200113c576000841562001127578287015190505b620011338582620010a6565b865550620011a3565b601f1984166200114c8662000ee8565b60005b8281101562001176578489015182556001820191506020850194506020810190506200114f565b8683101562001196578489015162001192601f89168262001086565b8355505b6001600288020188555050505b505050505050565b6000604051905090565b600080fd5b600080fd5b600080fd5b600080fd5b6000601f19601f8301169050919050565b620011e582620011c9565b810181811067ffffffffffffffff8211171562001207576200120662000e55565b5b80604052505050565b60006200121c620011ab565b90506200122a8282620011da565b919050565b600067ffffffffffffffff8211156200124d576200124c62000e55565b5b6200125882620011c9565b9050602081019050919050565b60005b838110156200128557808201518184015260208101905062001268565b60008484015250505050565b6000620012a8620012a2846200122f565b62001210565b905082815260208101848484011115620012c757620012c6620011c4565b5b620012d484828562001265565b509392505050565b600082601f830112620012f457620012f3620011bf565b5b81516200130684826020860162001291565b91505092915050565b6000806000606084860312156200132b576200132a620011b5565b5b600084015167ffffffffffffffff8111156200134c576200134b620011ba565b5b6200135a86828701620012dc565b935050602084015167ffffffffffffffff8111156200137e576200137d620011ba565b5b6200138c86828701620012dc565b925050604084015167ffffffffffffffff811115620013b057620013af620011ba565b5b620013be86828701620012dc565b9150509250925092565b7f4e487b7100000000000000000000000000000000000000000000000000000000600052601160045260246000fd5b6000620014048262000f70565b9150620014118362000f70565b92508282019050808211156200142c576200142b620013c8565b5b92915050565b60006200143f8262000f70565b91506200144c8362000f70565b9250817fffffffffffffffffffffffffffffffffffffffffffffffffffffffffffffffff0483118215151615620014885762001487620013c8565b5b828202905092915050565b6000620014a08262000f70565b91507fffffffffffffffffffffffffffffffffffffffffffffffffffffffffffffffff8203620014d557620014d4620013c8565b5b600182019050919050565b600082825260208201905092915050565b7f4f776e61626c653a2063616c6c6572206973206e6f7420746865206f776e6572600082015250565b600062001529602083620014e0565b91506200153682620014f1565b602082019050919050565b600060208201905081810360008301526200155c816200151a565b9050919050565b7f4552433732313a207472616e7366657220746f206e6f6e20455243373231526560008201527f63656976657220696d706c656d656e7465720000000000000000000000000000602082015250565b6000620015c1603283620014e0565b9150620015ce8262001563565b604082019050919050565b60006020820190508181036000830152620015f481620015b2565b9050919050565b7f4552433732313a206d696e7420746f20746865207a65726f2061646472657373600082015250565b600062001633602083620014e0565b91506200164082620015fb565b602082019050919050565b60006020820190508181036000830152620016668162001624565b9050919050565b7f4552433732313a20746f6b656e20616c7265616479206d696e74656400000000600082015250565b6000620016a5601c83620014e0565b9150620016b2826200166d565b602082019050919050565b60006020820190508181036000830152620016d88162001696565b9050919050565b600073ffffffffffffffffffffffffffffffffffffffff82169050919050565b60006200170c82620016df565b9050919050565b6200171e81620016ff565b82525050565b6200172f8162000f70565b82525050565b600081519050919050565b600082825260208201905092915050565b60006200175e8262001735565b6200176a818562001740565b93506200177c81856020860162001265565b6200178781620011c9565b840191505092915050565b6000608082019050620017a9600083018762001713565b620017b8602083018662001713565b620017c7604083018562001724565b8181036060830152620017db818462001751565b905095945050505050565b60007fffffffff0000000000000000000000000000000000000000000000000000000082169050919050565b6200181d81620017e6565b81146200182957600080fd5b50565b6000815190506200183d8162001812565b92915050565b6000602082840312156200185c576200185b620011b5565b5b60006200186c848285016200182c565b91505092915050565b6000620018828262000f70565b91506200188f8362000f70565b9250828203905081811115620018aa57620018a9620013c8565b5b92915050565b7f4e487b7100000000000000000000000000000000000000000000000000000000600052603260045260246000fd5b7f4e487b7100000000000000000000000000000000000000000000000000000000600052603160045260246000fd5b7f4552433732313a2061646472657373207a65726f206973206e6f74206120766160008201527f6c6964206f776e65720000000000000000000000000000000000000000000000602082015250565b60006200196c602983620014e0565b915062001979826200190e565b604082019050919050565b600060208201905081810360008301526200199f816200195d565b9050919050565b613f7580620019b66000396000f3fe6080604052600436106102045760003560e01c806355f804b311610118578063a22cb465116100a0578063d5abeb011161006f578063d5abeb011461076a578063d936547e14610795578063da3ef23f146107d2578063e985e9c5146107fb578063f2fde38b1461083857610204565b8063a22cb465146106b0578063b88d4fde146106d9578063c668286214610702578063c87b56dd1461072d57610204565b806370a08231116100e757806370a08231146105dd578063715018a61461061a5780637f00c7a6146106315780638da5cb5b1461065a57806395d89b411461068557610204565b806355f804b3146105215780635c975abb1461054a5780636352211e146105755780636c0360eb146105b257610204565b806323b872dd1161019b57806342842e0e1161016a57806342842e0e1461042c578063438b63001461045557806344a0d68a146104925780634a4c560d146104bb5780634f6ccce7146104e457610204565b806323b872dd146103815780632f745c59146103aa57806330cc7ae0146103e757806340c10f191461041057610204565b8063095ea7b3116101d7578063095ea7b3146102d757806313faede61461030057806318160ddd1461032b578063239c70ae1461035657610204565b806301ffc9a71461020957806302329a291461024657806306fdde031461026f578063081812fc1461029a575b600080fd5b34801561021557600080fd5b50610230600480360381019061022b91906128bf565b610861565b60405161023d9190612907565b60405180910390f35b34801561025257600080fd5b5061026d6004803603810190610268919061294e565b6108db565b005b34801561027b57600080fd5b50610284610900565b6040516102919190612a0b565b60405180910390f35b3480156102a657600080fd5b506102c160048036038101906102bc9190612a63565b610992565b6040516102ce9190612ad1565b60405180910390f35b3480156102e357600080fd5b506102fe60048036038101906102f99190612b18565b6109d8565b005b34801561030c57600080fd5b50610315610aef565b6040516103229190612b67565b60405180910390f35b34801561033757600080fd5b50610340610af5565b60405161034d9190612b67565b60405180910390f35b34801561036257600080fd5b5061036b610b02565b6040516103789190612b67565b60405180910390f35b34801561038d57600080fd5b506103a860048036038101906103a39190612b82565b610b08565b005b3480156103b657600080fd5b506103d160048036038101906103cc9190612b18565b610b68565b6040516103de9190612b67565b60405180910390f35b3480156103f357600080fd5b5061040e60048036038101906104099190612bd5565b610c0d565b005b61042a60048036038101906104259190612b18565b610c70565b005b34801561043857600080fd5b50610453600480360381019061044e9190612b82565b610db6565b005b34801561046157600080fd5b5061047c60048036038101906104779190612bd5565b610dd6565b6040516104899190612cc0565b60405180910390f35b34801561049e57600080fd5b506104b960048036038101906104b49190612a63565b610e84565b005b3480156104c757600080fd5b506104e260048036038101906104dd9190612bd5565b610e96565b005b3480156104f057600080fd5b5061050b60048036038101906105069190612a63565b610ef9565b6040516105189190612b67565b60405180910390f35b34801561052d57600080fd5b5061054860048036038101906105439190612e17565b610f6a565b005b34801561055657600080fd5b5061055f610f85565b60405161056c9190612907565b60405180910390f35b34801561058157600080fd5b5061059c60048036038101906105979190612a63565b610f98565b6040516105a99190612ad1565b60405180910390f35b3480156105be57600080fd5b506105c7611049565b6040516105d49190612a0b565b60405180910390f35b3480156105e957600080fd5b5061060460048036038101906105ff9190612bd5565b6110d7565b6040516106119190612b67565b60405180910390f35b34801561062657600080fd5b5061062f61118e565b005b34801561063d57600080fd5b5061065860048036038101906106539190612a63565b6111a2565b005b34801561066657600080fd5b5061066f6111b4565b60405161067c9190612ad1565b60405180910390f35b34801561069157600080fd5b5061069a6111de565b6040516106a79190612a0b565b60405180910390f35b3480156106bc57600080fd5b506106d760048036038101906106d29190612e60565b611270565b005b3480156106e557600080fd5b5061070060048036038101906106fb9190612f41565b611286565b005b34801561070e57600080fd5b506107176112e8565b6040516107249190612a0b565b60405180910390f35b34801561073957600080fd5b50610754600480360381019061074f9190612a63565b611376565b6040516107619190612a0b565b60405180910390f35b34801561077657600080fd5b5061077f611420565b60405161078c9190612b67565b60405180910390f35b3480156107a157600080fd5b506107bc60048036038101906107b79190612bd5565b611426565b6040516107c99190612907565b60405180910390f35b3480156107de57600080fd5b506107f960048036038101906107f49190612e17565b611446565b005b34801561080757600080fd5b50610822600480360381019061081d9190612fc4565b611461565b60405161082f9190612907565b60405180910390f35b34801561084457600080fd5b5061085f600480360381019061085a9190612bd5565b6114f5565b005b60007f780e9d63000000000000000000000000000000000000000000000000000000007bffffffffffffffffffffffffffffffffffffffffffffffffffffffff1916827bffffffffffffffffffffffffffffffffffffffffffffffffffffffff191614806108d457506108d3826115a0565b5b9050919050565b6108e3611682565b80601060006101000a81548160ff02191690831515021790555050565b60606000805461090f90613033565b80601f016020809104026020016040519081016040528092919081815260200182805461093b90613033565b80156109885780601f1061095d57610100808354040283529160200191610988565b820191906000526020600020905b81548152906001019060200180831161096b57829003601f168201915b5050505050905090565b600061099d82611700565b6004600083815260200190815260200160002060009054906101000a900473ffffffffffffffffffffffffffffffffffffffff169050919050565b60006109e382610f98565b90508073ffffffffffffffffffffffffffffffffffffffff168373ffffffffffffffffffffffffffffffffffffffff1603610a53576040517f08c379a0000000000000000000000000000000000000000000000000000000008152600401610a4a906130d6565b60405180910390fd5b8073ffffffffffffffffffffffffffffffffffffffff16610a7261174b565b73ffffffffffffffffffffffffffffffffffffffff161480610aa15750610aa081610a9b61174b565b611461565b5b610ae0576040517f08c379a0000000000000000000000000000000000000000000000000000000008152600401610ad790613168565b60405180910390fd5b610aea8383611753565b505050565b600d5481565b6000600880549050905090565b600f5481565b610b19610b1361174b565b8261180c565b610b58576040517f08c379a0000000000000000000000000000000000000000000000000000000008152600401610b4f906131fa565b60405180910390fd5b610b638383836118a1565b505050565b6000610b73836110d7565b8210610bb4576040517f08c379a0000000000000000000000000000000000000000000000000000000008152600401610bab9061328c565b60405180910390fd5b600660008473ffffffffffffffffffffffffffffffffffffffff1673ffffffffffffffffffffffffffffffffffffffff168152602001908152602001600020600083815260200190815260200160002054905092915050565b610c15611682565b6000601160008373ffffffffffffffffffffffffffffffffffffffff1673ffffffffffffffffffffffffffffffffffffffff16815260200190815260200160002060006101000a81548160ff02191690831515021790555050565b6000610c7a610af5565b9050601060009054906101000a900460ff1615610c9657600080fd5b60008211610ca357600080fd5b600f54821115610cb257600080fd5b600e548282610cc191906132db565b1115610ccc57600080fd5b610cd46111b4565b73ffffffffffffffffffffffffffffffffffffffff163373ffffffffffffffffffffffffffffffffffffffff1614610d7a5760011515601160003373ffffffffffffffffffffffffffffffffffffffff1673ffffffffffffffffffffffffffffffffffffffff16815260200190815260200160002060009054906101000a900460ff16151514610d795781600d54610d6c919061330f565b341015610d7857600080fd5b5b5b6000600190505b828111610db057610d9d848284610d9891906132db565b611b07565b8080610da890613369565b915050610d81565b50505050565b610dd183838360405180602001604052806000815250611286565b505050565b60606000610de3836110d7565b905060008167ffffffffffffffff811115610e0157610e00612cec565b5b604051908082528060200260200182016040528015610e2f5781602001602082028036833780820191505090505b50905060005b82811015610e7957610e478582610b68565b828281518110610e5a57610e596133b1565b5b6020026020010181815250508080610e7190613369565b915050610e35565b508092505050919050565b610e8c611682565b80600d8190555050565b610e9e611682565b6001601160008373ffffffffffffffffffffffffffffffffffffffff1673ffffffffffffffffffffffffffffffffffffffff16815260200190815260200160002060006101000a81548160ff02191690831515021790555050565b6000610f03610af5565b8210610f44576040517f08c379a0000000000000000000000000000000000000000000000000000000008152600401610f3b90613452565b60405180910390fd5b60088281548110610f5857610f576133b1565b5b90600052602060002001549050919050565b610f72611682565b80600b9081610f81919061361e565b5050565b601060009054906101000a900460ff1681565b6000806002600084815260200190815260200160002060009054906101000a900473ffffffffffffffffffffffffffffffffffffffff169050600073ffffffffffffffffffffffffffffffffffffffff168173ffffffffffffffffffffffffffffffffffffffff1603611040576040517f08c379a00000000000000000000000000000000000000000000000000000000081526004016110379061373c565b60405180910390fd5b80915050919050565b600b805461105690613033565b80601f016020809104026020016040519081016040528092919081815260200182805461108290613033565b80156110cf5780601f106110a4576101008083540402835291602001916110cf565b820191906000526020600020905b8154815290600101906020018083116110b257829003601f168201915b505050505081565b60008073ffffffffffffffffffffffffffffffffffffffff168273ffffffffffffffffffffffffffffffffffffffff1603611147576040517f08c379a000000000000000000000000000000000000000000000000000000000815260040161113e906137ce565b60405180910390fd5b600360008373ffffffffffffffffffffffffffffffffffffffff1673ffffffffffffffffffffffffffffffffffffffff168152602001908152602001600020549050919050565b611196611682565b6111a06000611b25565b565b6111aa611682565b80600f8190555050565b6000600a60009054906101000a900473ffffffffffffffffffffffffffffffffffffffff16905090565b6060600180546111ed90613033565b80601f016020809104026020016040519081016040528092919081815260200182805461121990613033565b80156112665780601f1061123b57610100808354040283529160200191611266565b820191906000526020600020905b81548152906001019060200180831161124957829003601f168201915b5050505050905090565b61128261127b61174b565b8383611beb565b5050565b61129761129161174b565b8361180c565b6112d6576040517f08c379a00000000000000000000000000000000000000000000000000000000081526004016112cd906131fa565b60405180910390fd5b6112e284848484611d57565b50505050565b600c80546112f590613033565b80601f016020809104026020016040519081016040528092919081815260200182805461132190613033565b801561136e5780601f106113435761010080835404028352916020019161136e565b820191906000526020600020905b81548152906001019060200180831161135157829003601f168201915b505050505081565b606061138182611db3565b6113c0576040517f08c379a00000000000000000000000000000000000000000000000000000000081526004016113b790613860565b60405180910390fd5b60006113ca611e1f565b905060008151116113ea5760405180602001604052806000815250611418565b806113f484611eb1565b600c6040516020016114089392919061393f565b6040516020818303038152906040525b915050919050565b600e5481565b60116020528060005260406000206000915054906101000a900460ff1681565b61144e611682565b80600c908161145d919061361e565b5050565b6000600560008473ffffffffffffffffffffffffffffffffffffffff1673ffffffffffffffffffffffffffffffffffffffff16815260200190815260200160002060008373ffffffffffffffffffffffffffffffffffffffff1673ffffffffffffffffffffffffffffffffffffffff16815260200190815260200160002060009054906101000a900460ff16905092915050565b6114fd611682565b600073ffffffffffffffffffffffffffffffffffffffff168173ffffffffffffffffffffffffffffffffffffffff160361156c576040517f08c379a0000000000000000000000000000000000000000000000000000000008152600401611563906139e2565b60405180910390fd5b61157581611b25565b50565b6000808273ffffffffffffffffffffffffffffffffffffffff163b119050919050565b505050565b60007f80ac58cd000000000000000000000000000000000000000000000000000000007bffffffffffffffffffffffffffffffffffffffffffffffffffffffff1916827bffffffffffffffffffffffffffffffffffffffffffffffffffffffff1916148061166b57507f5b5e139f000000000000000000000000000000000000000000000000000000007bffffffffffffffffffffffffffffffffffffffffffffffffffffffff1916827bffffffffffffffffffffffffffffffffffffffffffffffffffffffff1916145b8061167b575061167a82612011565b5b9050919050565b61168a61174b565b73ffffffffffffffffffffffffffffffffffffffff166116a86111b4565b73ffffffffffffffffffffffffffffffffffffffff16146116fe576040517f08c379a00000000000000000000000000000000000000000000000000000000081526004016116f590613a4e565b60405180910390fd5b565b61170981611db3565b611748576040517f08c379a000000000000000000000000000000000000000000000000000000000815260040161173f9061373c565b60405180910390fd5b50565b600033905090565b816004600083815260200190815260200160002060006101000a81548173ffffffffffffffffffffffffffffffffffffffff021916908373ffffffffffffffffffffffffffffffffffffffff160217905550808273ffffffffffffffffffffffffffffffffffffffff166117c683610f98565b73ffffffffffffffffffffffffffffffffffffffff167f8c5be1e5ebec7d5bd14f71427d1e84f3dd0314c0f7b2291e5b200ac8c7c3b92560405160405180910390a45050565b60008061181883610f98565b90508073ffffffffffffffffffffffffffffffffffffffff168473ffffffffffffffffffffffffffffffffffffffff16148061185a57506118598185611461565b5b8061189857508373ffffffffffffffffffffffffffffffffffffffff1661188084610992565b73ffffffffffffffffffffffffffffffffffffffff16145b91505092915050565b8273ffffffffffffffffffffffffffffffffffffffff166118c182610f98565b73ffffffffffffffffffffffffffffffffffffffff1614611917576040517f08c379a000000000000000000000000000000000000000000000000000000000815260040161190e90613ae0565b60405180910390fd5b600073ffffffffffffffffffffffffffffffffffffffff168273ffffffffffffffffffffffffffffffffffffffff1603611986576040517f08c379a000000000000000000000000000000000000000000000000000000000815260040161197d90613b72565b60405180910390fd5b61199183838361207b565b61199c600082611753565b6001600360008573ffffffffffffffffffffffffffffffffffffffff1673ffffffffffffffffffffffffffffffffffffffff16815260200190815260200160002060008282546119ec9190613b92565b925050819055506001600360008473ffffffffffffffffffffffffffffffffffffffff1673ffffffffffffffffffffffffffffffffffffffff1681526020019081526020016000206000828254611a4391906132db565b92505081905550816002600083815260200190815260200160002060006101000a81548173ffffffffffffffffffffffffffffffffffffffff021916908373ffffffffffffffffffffffffffffffffffffffff160217905550808273ffffffffffffffffffffffffffffffffffffffff168473ffffffffffffffffffffffffffffffffffffffff167fddf252ad1be2c89b69c2b068fc378daa952ba7f163c4a11628f55a4df523b3ef60405160405180910390a4611b0283838361218d565b505050565b611b21828260405180602001604052806000815250612192565b5050565b6000600a60009054906101000a900473ffffffffffffffffffffffffffffffffffffffff16905081600a60006101000a81548173ffffffffffffffffffffffffffffffffffffffff021916908373ffffffffffffffffffffffffffffffffffffffff1602179055508173ffffffffffffffffffffffffffffffffffffffff168173ffffffffffffffffffffffffffffffffffffffff167f8be0079c531659141344cd1fd0a4f28419497f9722a3daafe3b4186f6b6457e060405160405180910390a35050565b8173ffffffffffffffffffffffffffffffffffffffff168373ffffffffffffffffffffffffffffffffffffffff1603611c59576040517f08c379a0000000000000000000000000000000000000000000000000000000008152600401611c5090613c12565b60405180910390fd5b80600560008573ffffffffffffffffffffffffffffffffffffffff1673ffffffffffffffffffffffffffffffffffffffff16815260200190815260200160002060008473ffffffffffffffffffffffffffffffffffffffff1673ffffffffffffffffffffffffffffffffffffffff16815260200190815260200160002060006101000a81548160ff0219169083151502179055508173ffffffffffffffffffffffffffffffffffffffff168373ffffffffffffffffffffffffffffffffffffffff167f17307eab39ab6107e8899845ad3d59bd9653f200f220920489ca2b5937696c3183604051611d4a9190612907565b60405180910390a3505050565b611d628484846118a1565b611d6e848484846121ed565b611dad576040517f08c379a0000000000000000000000000000000000000000000000000000000008152600401611da490613ca4565b60405180910390fd5b50505050565b60008073ffffffffffffffffffffffffffffffffffffffff166002600084815260200190815260200160002060009054906101000a900473ffffffffffffffffffffffffffffffffffffffff1673ffffffffffffffffffffffffffffffffffffffff1614159050919050565b6060600b8054611e2e90613033565b80601f0160208091040260200160405190810160405280929190818152602001828054611e5a90613033565b8015611ea75780601f10611e7c57610100808354040283529160200191611ea7565b820191906000526020600020905b815481529060010190602001808311611e8a57829003601f168201915b5050505050905090565b606060008203611ef8576040518060400160405280600181526020017f3000000000000000000000000000000000000000000000000000000000000000815250905061200c565b600082905060005b60008214611f2a578080611f1390613369565b915050600a82611f239190613cf3565b9150611f00565b60008167ffffffffffffffff811115611f4657611f45612cec565b5b6040519080825280601f01601f191660200182016040528015611f785781602001600182028036833780820191505090505b5090505b6000851461200557600182611f919190613b92565b9150600a85611fa09190613d24565b6030611fac91906132db565b60f81b818381518110611fc257611fc16133b1565b5b60200101907effffffffffffffffffffffffffffffffffffffffffffffffffffffffffffff1916908160001a905350600a85611ffe9190613cf3565b9450611f7c565b8093505050505b919050565b60007f01ffc9a7000000000000000000000000000000000000000000000000000000007bffffffffffffffffffffffffffffffffffffffffffffffffffffffff1916827bffffffffffffffffffffffffffffffffffffffffffffffffffffffff1916149050919050565b61208683838361159b565b600073ffffffffffffffffffffffffffffffffffffffff168373ffffffffffffffffffffffffffffffffffffffff16036120c8576120c381612374565b612107565b8173ffffffffffffffffffffffffffffffffffffffff168373ffffffffffffffffffffffffffffffffffffffff16146121065761210583826123bd565b5b5b600073ffffffffffffffffffffffffffffffffffffffff168273ffffffffffffffffffffffffffffffffffffffff1603612149576121448161252a565b612188565b8273ffffffffffffffffffffffffffffffffffffffff168273ffffffffffffffffffffffffffffffffffffffff16146121875761218682826125fb565b5b5b505050565b505050565b61219c838361267a565b6121a960008484846121ed565b6121e8576040517f08c379a00000000000000000000000000000000000000000000000000000000081526004016121df90613ca4565b60405180910390fd5b505050565b600061220e8473ffffffffffffffffffffffffffffffffffffffff16611578565b15612367578373ffffffffffffffffffffffffffffffffffffffff1663150b7a0261223761174b565b8786866040518563ffffffff1660e01b81526004016122599493929190613daa565b6020604051808303816000875af192505050801561229557506040513d601f19601f820116820180604052508101906122929190613e0b565b60015b612317573d80600081146122c5576040519150601f19603f3d011682016040523d82523d6000602084013e6122ca565b606091505b50600081510361230f576040517f08c379a000000000000000000000000000000000000000000000000000000000815260040161230690613ca4565b60405180910390fd5b805181602001fd5b63150b7a0260e01b7bffffffffffffffffffffffffffffffffffffffffffffffffffffffff1916817bffffffffffffffffffffffffffffffffffffffffffffffffffffffff19161491505061236c565b600190505b949350505050565b6008805490506009600083815260200190815260200160002081905550600881908060018154018082558091505060019003906000526020600020016000909190919091505550565b600060016123ca846110d7565b6123d49190613b92565b90506000600760008481526020019081526020016000205490508181146124b9576000600660008673ffffffffffffffffffffffffffffffffffffffff1673ffffffffffffffffffffffffffffffffffffffff168152602001908152602001600020600084815260200190815260200160002054905080600660008773ffffffffffffffffffffffffffffffffffffffff1673ffffffffffffffffffffffffffffffffffffffff168152602001908152602001600020600084815260200190815260200160002081905550816007600083815260200190815260200160002081905550505b6007600084815260200190815260200160002060009055600660008573ffffffffffffffffffffffffffffffffffffffff1673ffffffffffffffffffffffffffffffffffffffff16815260200190815260200160002060008381526020019081526020016000206000905550505050565b6000600160088054905061253e9190613b92565b905060006009600084815260200190815260200160002054905060006008838154811061256e5761256d6133b1565b5b9060005260206000200154905080600883815481106125905761258f6133b1565b5b9060005260206000200181905550816009600083815260200190815260200160002081905550600960008581526020019081526020016000206000905560088054806125df576125de613e38565b5b6001900381819060005260206000200160009055905550505050565b6000612606836110d7565b905081600660008573ffffffffffffffffffffffffffffffffffffffff1673ffffffffffffffffffffffffffffffffffffffff168152602001908152602001600020600083815260200190815260200160002081905550806007600084815260200190815260200160002081905550505050565b600073ffffffffffffffffffffffffffffffffffffffff168273ffffffffffffffffffffffffffffffffffffffff16036126e9576040517f08c379a00000000000000000000000000000000000000000000000000000000081526004016126e090613eb3565b60405180910390fd5b6126f281611db3565b15612732576040517f08c379a000000000000000000000000000000000000000000000000000000000815260040161272990613f1f565b60405180910390fd5b61273e6000838361207b565b6001600360008473ffffffffffffffffffffffffffffffffffffffff1673ffffffffffffffffffffffffffffffffffffffff168152602001908152602001600020600082825461278e91906132db565b92505081905550816002600083815260200190815260200160002060006101000a81548173ffffffffffffffffffffffffffffffffffffffff021916908373ffffffffffffffffffffffffffffffffffffffff160217905550808273ffffffffffffffffffffffffffffffffffffffff16600073ffffffffffffffffffffffffffffffffffffffff167fddf252ad1be2c89b69c2b068fc378daa952ba7f163c4a11628f55a4df523b3ef60405160405180910390a461284f6000838361218d565b5050565b6000604051905090565b600080fd5b600080fd5b60007fffffffff0000000000000000000000000000000000000000000000000000000082169050919050565b61289c81612867565b81146128a757600080fd5b50565b6000813590506128b981612893565b92915050565b6000602082840312156128d5576128d461285d565b5b60006128e3848285016128aa565b91505092915050565b60008115159050919050565b612901816128ec565b82525050565b600060208201905061291c60008301846128f8565b92915050565b61292b816128ec565b811461293657600080fd5b50565b60008135905061294881612922565b92915050565b6000602082840312156129645761296361285d565b5b600061297284828501612939565b91505092915050565b600081519050919050565b600082825260208201905092915050565b60005b838110156129b557808201518184015260208101905061299a565b60008484015250505050565b6000601f19601f8301169050919050565b60006129dd8261297b565b6129e78185612986565b93506129f7818560208601612997565b612a00816129c1565b840191505092915050565b60006020820190508181036000830152612a2581846129d2565b905092915050565b6000819050919050565b612a4081612a2d565b8114612a4b57600080fd5b50565b600081359050612a5d81612a37565b92915050565b600060208284031215612a7957612a7861285d565b5b6000612a8784828501612a4e565b91505092915050565b600073ffffffffffffffffffffffffffffffffffffffff82169050919050565b6000612abb82612a90565b9050919050565b612acb81612ab0565b82525050565b6000602082019050612ae66000830184612ac2565b92915050565b612af581612ab0565b8114612b0057600080fd5b50565b600081359050612b1281612aec565b92915050565b60008060408385031215612b2f57612b2e61285d565b5b6000612b3d85828601612b03565b9250506020612b4e85828601612a4e565b9150509250929050565b612b6181612a2d565b82525050565b6000602082019050612b7c6000830184612b58565b92915050565b600080600060608486031215612b9b57612b9a61285d565b5b6000612ba986828701612b03565b9350506020612bba86828701612b03565b9250506040612bcb86828701612a4e565b9150509250925092565b600060208284031215612beb57612bea61285d565b5b6000612bf984828501612b03565b91505092915050565b600081519050919050565b600082825260208201905092915050565b6000819050602082019050919050565b612c3781612a2d565b82525050565b6000612c498383612c2e565b60208301905092915050565b6000602082019050919050565b6000612c6d82612c02565b612c778185612c0d565b9350612c8283612c1e565b8060005b83811015612cb3578151612c9a8882612c3d565b9750612ca583612c55565b925050600181019050612c86565b5085935050505092915050565b60006020820190508181036000830152612cda8184612c62565b905092915050565b600080fd5b600080fd5b7f4e487b7100000000000000000000000000000000000000000000000000000000600052604160045260246000fd5b612d24826129c1565b810181811067ffffffffffffffff82111715612d4357612d42612cec565b5b80604052505050565b6000612d56612853565b9050612d628282612d1b565b919050565b600067ffffffffffffffff821115612d8257612d81612cec565b5b612d8b826129c1565b9050602081019050919050565b82818337600083830152505050565b6000612dba612db584612d67565b612d4c565b905082815260208101848484011115612dd657612dd5612ce7565b5b612de1848285612d98565b509392505050565b600082601f830112612dfe57612dfd612ce2565b5b8135612e0e848260208601612da7565b91505092915050565b600060208284031215612e2d57612e2c61285d565b5b600082013567ffffffffffffffff811115612e4b57612e4a612862565b5b612e5784828501612de9565b91505092915050565b60008060408385031215612e7757612e7661285d565b5b6000612e8585828601612b03565b9250506020612e9685828601612939565b9150509250929050565b600067ffffffffffffffff821115612ebb57612eba612cec565b5b612ec4826129c1565b9050602081019050919050565b6000612ee4612edf84612ea0565b612d4c565b905082815260208101848484011115612f0057612eff612ce7565b5b612f0b848285612d98565b509392505050565b600082601f830112612f2857612f27612ce2565b5b8135612f38848260208601612ed1565b91505092915050565b60008060008060808587031215612f5b57612f5a61285d565b5b6000612f6987828801612b03565b9450506020612f7a87828801612b03565b9350506040612f8b87828801612a4e565b925050606085013567ffffffffffffffff811115612fac57612fab612862565b5b612fb887828801612f13565b91505092959194509250565b60008060408385031215612fdb57612fda61285d565b5b6000612fe985828601612b03565b9250506020612ffa85828601612b03565b9150509250929050565b7f4e487b7100000000000000000000000000000000000000000000000000000000600052602260045260246000fd5b6000600282049050600182168061304b57607f821691505b60208210810361305e5761305d613004565b5b50919050565b7f4552433732313a20617070726f76616c20746f2063757272656e74206f776e6560008201527f7200000000000000000000000000000000000000000000000000000000000000602082015250565b60006130c0602183612986565b91506130cb82613064565b604082019050919050565b600060208201905081810360008301526130ef816130b3565b9050919050565b7f4552433732313a20617070726f76652063616c6c6572206973206e6f7420746f60008201527f6b656e206f776e6572206e6f7220617070726f76656420666f7220616c6c0000602082015250565b6000613152603e83612986565b915061315d826130f6565b604082019050919050565b6000602082019050818103600083015261318181613145565b9050919050565b7f4552433732313a2063616c6c6572206973206e6f7420746f6b656e206f776e6560008201527f72206e6f7220617070726f766564000000000000000000000000000000000000602082015250565b60006131e4602e83612986565b91506131ef82613188565b604082019050919050565b60006020820190508181036000830152613213816131d7565b9050919050565b7f455243373231456e756d657261626c653a206f776e657220696e646578206f7560008201527f74206f6620626f756e6473000000000000000000000000000000000000000000602082015250565b6000613276602b83612986565b91506132818261321a565b604082019050919050565b600060208201905081810360008301526132a581613269565b9050919050565b7f4e487b7100000000000000000000000000000000000000000000000000000000600052601160045260246000fd5b60006132e682612a2d565b91506132f183612a2d565b9250828201905080821115613309576133086132ac565b5b92915050565b600061331a82612a2d565b915061332583612a2d565b9250817fffffffffffffffffffffffffffffffffffffffffffffffffffffffffffffffff048311821515161561335e5761335d6132ac565b5b828202905092915050565b600061337482612a2d565b91507fffffffffffffffffffffffffffffffffffffffffffffffffffffffffffffffff82036133a6576133a56132ac565b5b600182019050919050565b7f4e487b7100000000000000000000000000000000000000000000000000000000600052603260045260246000fd5b7f455243373231456e756d657261626c653a20676c6f62616c20696e646578206f60008201527f7574206f6620626f756e64730000000000000000000000000000000000000000602082015250565b600061343c602c83612986565b9150613447826133e0565b604082019050919050565b6000602082019050818103600083015261346b8161342f565b9050919050565b60008190508160005260206000209050919050565b60006020601f8301049050919050565b600082821b905092915050565b6000600883026134d47fffffffffffffffffffffffffffffffffffffffffffffffffffffffffffffffff82613497565b6134de8683613497565b95508019841693508086168417925050509392505050565b6000819050919050565b600061351b61351661351184612a2d565b6134f6565b612a2d565b9050919050565b6000819050919050565b61353583613500565b61354961354182613522565b8484546134a4565b825550505050565b600090565b61355e613551565b61356981848461352c565b505050565b5b8181101561358d57613582600082613556565b60018101905061356f565b5050565b601f8211156135d2576135a381613472565b6135ac84613487565b810160208510156135bb578190505b6135cf6135c785613487565b83018261356e565b50505b505050565b600082821c905092915050565b60006135f5600019846008026135d7565b1980831691505092915050565b600061360e83836135e4565b9150826002028217905092915050565b6136278261297b565b67ffffffffffffffff8111156136405761363f612cec565b5b61364a8254613033565b613655828285613591565b600060209050601f8311600181146136885760008415613676578287015190505b6136808582613602565b8655506136e8565b601f19841661369686613472565b60005b828110156136be57848901518255600182019150602085019450602081019050613699565b868310156136db57848901516136d7601f8916826135e4565b8355505b6001600288020188555050505b505050505050565b7f4552433732313a20696e76616c696420746f6b656e2049440000000000000000600082015250565b6000613726601883612986565b9150613731826136f0565b602082019050919050565b6000602082019050818103600083015261375581613719565b9050919050565b7f4552433732313a2061646472657373207a65726f206973206e6f74206120766160008201527f6c6964206f776e65720000000000000000000000000000000000000000000000602082015250565b60006137b8602983612986565b91506137c38261375c565b604082019050919050565b600060208201905081810360008301526137e7816137ab565b9050919050565b7f4552433732314d657461646174613a2055524920717565727920666f72206e6f60008201527f6e6578697374656e7420746f6b656e0000000000000000000000000000000000602082015250565b600061384a602f83612986565b9150613855826137ee565b604082019050919050565b600060208201905081810360008301526138798161383d565b9050919050565b600081905092915050565b60006138968261297b565b6138a08185613880565b93506138b0818560208601612997565b80840191505092915050565b600081546138c981613033565b6138d38186613880565b945060018216600081146138ee576001811461390357613936565b60ff1983168652811515820286019350613936565b61390c85613472565b60005b8381101561392e5781548189015260018201915060208101905061390f565b838801955050505b50505092915050565b600061394b828661388b565b9150613957828561388b565b915061396382846138bc565b9150819050949350505050565b7f4f776e61626c653a206e6577206f776e657220697320746865207a65726f206160008201527f6464726573730000000000000000000000000000000000000000000000000000602082015250565b60006139cc602683612986565b91506139d782613970565b604082019050919050565b600060208201905081810360008301526139fb816139bf565b9050919050565b7f4f776e61626c653a2063616c6c6572206973206e6f7420746865206f776e6572600082015250565b6000613a38602083612986565b9150613a4382613a02565b602082019050919050565b60006020820190508181036000830152613a6781613a2b565b9050919050565b7f4552433732313a207472616e736665722066726f6d20696e636f72726563742060008201527f6f776e6572000000000000000000000000000000000000000000000000000000602082015250565b6000613aca602583612986565b9150613ad582613a6e565b604082019050919050565b60006020820190508181036000830152613af981613abd565b9050919050565b7f4552433732313a207472616e7366657220746f20746865207a65726f2061646460008201527f7265737300000000000000000000000000000000000000000000000000000000602082015250565b6000613b5c602483612986565b9150613b6782613b00565b604082019050919050565b60006020820190508181036000830152613b8b81613b4f565b9050919050565b6000613b9d82612a2d565b9150613ba883612a2d565b9250828203905081811115613bc057613bbf6132ac565b5b92915050565b7f4552433732313a20617070726f766520746f2063616c6c657200000000000000600082015250565b6000613bfc601983612986565b9150613c0782613bc6565b602082019050919050565b60006020820190508181036000830152613c2b81613bef565b9050919050565b7f4552433732313a207472616e7366657220746f206e6f6e20455243373231526560008201527f63656976657220696d706c656d656e7465720000000000000000000000000000602082015250565b6000613c8e603283612986565b9150613c9982613c32565b604082019050919050565b60006020820190508181036000830152613cbd81613c81565b9050919050565b7f4e487b7100000000000000000000000000000000000000000000000000000000600052601260045260246000fd5b6000613cfe82612a2d565b9150613d0983612a2d565b925082613d1957613d18613cc4565b5b828204905092915050565b6000613d2f82612a2d565b9150613d3a83612a2d565b925082613d4a57613d49613cc4565b5b828206905092915050565b600081519050919050565b600082825260208201905092915050565b6000613d7c82613d55565b613d868185613d60565b9350613d96818560208601612997565b613d9f816129c1565b840191505092915050565b6000608082019050613dbf6000830187612ac2565b613dcc6020830186612ac2565b613dd96040830185612b58565b8181036060830152613deb8184613d71565b905095945050505050565b600081519050613e0581612893565b92915050565b600060208284031215613e2157613e2061285d565b5b6000613e2f84828501613df6565b91505092915050565b7f4e487b7100000000000000000000000000000000000000000000000000000000600052603160045260246000fd5b7f4552433732313a206d696e7420746f20746865207a65726f2061646472657373600082015250565b6000613e9d602083612986565b9150613ea882613e67565b602082019050919050565b60006020820190508181036000830152613ecc81613e90565b9050919050565b7f4552433732313a20746f6b656e20616c7265616479206d696e74656400000000600082015250565b6000613f09601c83612986565b9150613f1482613ed3565b602082019050919050565b60006020820190508181036000830152613f3881613efc565b905091905056fea26469706673582212202008e4bd4f41d9c73dba131d7df0d9a0ad310ce2137dd1e906dcb9b34ddbeebb64736f6c63430008100033",
  "immutableReferences": {},
  "source": "// SPDX-License-Identifier: GPL-3.0\npragma solidity >=0.7.0 <0.9.0;\n\nimport \"@openzeppelin/contracts/token/ERC721/extensions/ERC721Enumerable.sol\";\nimport \"@openzeppelin/contracts/access/Ownable.sol\";\n\ncontract NFT is ERC721Enumerable, Ownable {\n  using Strings for uint256;\n\n  string public baseURI;\n  string public baseExtension = \".json\";\n  uint256 public cost = 0.05 ether;\n  uint256 public maxSupply = 10000;\n  uint256 public maxMintAmount = 20;\n  bool public paused = false;\n  mapping(address => bool) public whitelisted;\n\n  constructor(\n    string memory _name,\n    string memory _symbol,\n    string memory _initBaseURI\n  ) ERC721(_name, _symbol) {\n    setBaseURI(_initBaseURI);\n    mint(msg.sender, 1);\n  }\n\n  // internal\n  function _baseURI() internal view virtual override returns (string memory) {\n    return baseURI;\n  }\n\n  // public\n  function mint(address _to, uint256 _mintAmount) public payable {\n    uint256 supply = totalSupply();\n    require(!paused);\n    require(_mintAmount > 0);\n    require(_mintAmount <= maxMintAmount);\n    require(supply + _mintAmount <= maxSupply);\n\n    if (msg.sender != owner()) {\n        if(whitelisted[msg.sender] != true) {\n          require(msg.value >= cost * _mintAmount);\n        }\n    }\n\n    for (uint256 i = 1; i <= _mintAmount; i++) {\n      _safeMint(_to, supply + i);\n    }\n  }\n\n  function walletOfOwner(address _owner)\n    public\n    view\n    returns (uint256[] memory)\n  {\n    uint256 ownerTokenCount = balanceOf(_owner);\n    uint256[] memory tokenIds = new uint256[](ownerTokenCount);\n    for (uint256 i; i < ownerTokenCount; i++) {\n      tokenIds[i] = tokenOfOwnerByIndex(_owner, i);\n    }\n    return tokenIds;\n  }\n\n  function tokenURI(uint256 tokenId)\n    public\n    view\n    virtual\n    override\n    returns (string memory)\n  {\n    require(\n      _exists(tokenId),\n      \"ERC721Metadata: URI query for nonexistent token\"\n    );\n\n    string memory currentBaseURI = _baseURI();\n    return bytes(currentBaseURI).length > 0\n        ? string(abi.encodePacked(currentBaseURI, tokenId.toString(), baseExtension))\n        : \"\";\n  }\n\n  //only owner\n  function setCost(uint256 _newCost) public onlyOwner {\n    cost = _newCost;\n  }\n\n  function setmaxMintAmount(uint256 _newmaxMintAmount) public onlyOwner {\n    maxMintAmount = _newmaxMintAmount;\n  }\n\n  function setBaseURI(string memory _newBaseURI) public onlyOwner {\n    baseURI = _newBaseURI;\n  }\n\n  function setBaseExtension(string memory _newBaseExtension) public onlyOwner {\n    baseExtension = _newBaseExtension;\n  }\n\n  function pause(bool _state) public onlyOwner {\n    paused = _state;\n  }\n \n function whitelistUser(address _user) public onlyOwner {\n    whitelisted[_user] = true;\n  }\n \n  function removeWhitelistUser(address _user) public onlyOwner {\n    whitelisted[_user] = false;\n  }\n}",
  "sourcePath": "/Users/nyinyimyozinhtet/Desktop/truffle_ganache/contracts/nftmint.sol",
  "compiler": {
    "name": "solc",
    "version": "0.8.16+commit.07a7930e.Emscripten.clang"
  },
  "schemaVersion": "3.4.9",
  "updatedAt": "2022-11-09T07:32:00.022Z",
  "networkType": "ethereum",
  "devdoc": {
    "kind": "dev",
    "methods": {
      "approve(address,uint256)": {
        "details": "See {IERC721-approve}."
      },
      "balanceOf(address)": {
        "details": "See {IERC721-balanceOf}."
      },
      "getApproved(uint256)": {
        "details": "See {IERC721-getApproved}."
      },
      "isApprovedForAll(address,address)": {
        "details": "See {IERC721-isApprovedForAll}."
      },
      "name()": {
        "details": "See {IERC721Metadata-name}."
      },
      "owner()": {
        "details": "Returns the address of the current owner."
      },
      "ownerOf(uint256)": {
        "details": "See {IERC721-ownerOf}."
      },
      "renounceOwnership()": {
        "details": "Leaves the contract without owner. It will not be possible to call `onlyOwner` functions anymore. Can only be called by the current owner. NOTE: Renouncing ownership will leave the contract without an owner, thereby removing any functionality that is only available to the owner."
      },
      "safeTransferFrom(address,address,uint256)": {
        "details": "See {IERC721-safeTransferFrom}."
      },
      "safeTransferFrom(address,address,uint256,bytes)": {
        "details": "See {IERC721-safeTransferFrom}."
      },
      "setApprovalForAll(address,bool)": {
        "details": "See {IERC721-setApprovalForAll}."
      },
      "supportsInterface(bytes4)": {
        "details": "See {IERC165-supportsInterface}."
      },
      "symbol()": {
        "details": "See {IERC721Metadata-symbol}."
      },
      "tokenByIndex(uint256)": {
        "details": "See {IERC721Enumerable-tokenByIndex}."
      },
      "tokenOfOwnerByIndex(address,uint256)": {
        "details": "See {IERC721Enumerable-tokenOfOwnerByIndex}."
      },
      "tokenURI(uint256)": {
        "details": "See {IERC721Metadata-tokenURI}."
      },
      "totalSupply()": {
        "details": "See {IERC721Enumerable-totalSupply}."
      },
      "transferFrom(address,address,uint256)": {
        "details": "See {IERC721-transferFrom}."
      },
      "transferOwnership(address)": {
        "details": "Transfers ownership of the contract to a new account (`newOwner`). Can only be called by the current owner."
      }
    },
    "version": 1
  },
  "userdoc": {
    "kind": "user",
    "methods": {},
    "version": 1
  }
}