{
  "contractName": "NFT",
  "abi": [
    {
      "inputs": [
        {
          "internalType": "string",
          "name": "_name",
          "type": "string"
        },
        {
          "internalType": "string",
          "name": "_symbol",
          "type": "string"
        },
        {
          "internalType": "string",
          "name": "_initBaseURI",
          "type": "string"
        }
      ],
      "stateMutability": "nonpayable",
      "type": "constructor"
    },
    {
      "anonymous": false,
      "inputs": [
        {
          "indexed": true,
          "internalType": "address",
          "name": "owner",
          "type": "address"
        },
        {
          "indexed": true,
          "internalType": "address",
          "name": "approved",
          "type": "address"
        },
        {
          "indexed": true,
          "internalType": "uint256",
          "name": "tokenId",
          "type": "uint256"
        }
      ],
      "name": "Approval",
      "type": "event"
    },
    {
      "anonymous": false,
      "inputs": [
        {
          "indexed": true,
          "internalType": "address",
          "name": "owner",
          "type": "address"
        },
        {
          "indexed": true,
          "internalType": "address",
          "name": "operator",
          "type": "address"
        },
        {
          "indexed": false,
          "internalType": "bool",
          "name": "approved",
          "type": "bool"
        }
      ],
      "name": "ApprovalForAll",
      "type": "event"
    },
    {
      "anonymous": false,
      "inputs": [
        {
          "indexed": true,
          "internalType": "address",
          "name": "previousOwner",
          "type": "address"
        },
        {
          "indexed": true,
          "internalType": "address",
          "name": "newOwner",
          "type": "address"
        }
      ],
      "name": "OwnershipTransferred",
      "type": "event"
    },
    {
      "anonymous": false,
      "inputs": [
        {
          "indexed": true,
          "internalType": "address",
          "name": "from",
          "type": "address"
        },
        {
          "indexed": true,
          "internalType": "address",
          "name": "to",
          "type": "address"
        },
        {
          "indexed": true,
          "internalType": "uint256",
          "name": "tokenId",
          "type": "uint256"
        }
      ],
      "name": "Transfer",
      "type": "event"
    },
    {
      "inputs": [
        {
          "internalType": "address",
          "name": "to",
          "type": "address"
        },
        {
          "internalType": "uint256",
          "name": "tokenId",
          "type": "uint256"
        }
      ],
      "name": "approve",
      "outputs": [],
      "stateMutability": "nonpayable",
      "type": "function"
    },
    {
      "inputs": [
        {
          "internalType": "address",
          "name": "owner",
          "type": "address"
        }
      ],
      "name": "balanceOf",
      "outputs": [
        {
          "internalType": "uint256",
          "name": "",
          "type": "uint256"
        }
      ],
      "stateMutability": "view",
      "type": "function",
      "constant": true
    },
    {
      "inputs": [],
      "name": "baseExtension",
      "outputs": [
        {
          "internalType": "string",
          "name": "",
          "type": "string"
        }
      ],
      "stateMutability": "view",
      "type": "function",
      "constant": true
    },
    {
      "inputs": [],
      "name": "baseURI",
      "outputs": [
        {
          "internalType": "string",
          "name": "",
          "type": "string"
        }
      ],
      "stateMutability": "view",
      "type": "function",
      "constant": true
    },
    {
      "inputs": [],
      "name": "cost",
      "outputs": [
        {
          "internalType": "uint256",
          "name": "",
          "type": "uint256"
        }
      ],
      "stateMutability": "view",
      "type": "function",
      "constant": true
    },
    {
      "inputs": [
        {
          "internalType": "uint256",
          "name": "tokenId",
          "type": "uint256"
        }
      ],
      "name": "getApproved",
      "outputs": [
        {
          "internalType": "address",
          "name": "",
          "type": "address"
        }
      ],
      "stateMutability": "view",
      "type": "function",
      "constant": true
    },
    {
      "inputs": [
        {
          "internalType": "address",
          "name": "owner",
          "type": "address"
        },
        {
          "internalType": "address",
          "name": "operator",
          "type": "address"
        }
      ],
      "name": "isApprovedForAll",
      "outputs": [
        {
          "internalType": "bool",
          "name": "",
          "type": "bool"
        }
      ],
      "stateMutability": "view",
      "type": "function",
      "constant": true
    },
    {
      "inputs": [],
      "name": "isStaked",
      "outputs": [
        {
          "internalType": "bool",
          "name": "",
          "type": "bool"
        }
      ],
      "stateMutability": "view",
      "type": "function",
      "constant": true
    },
    {
      "inputs": [],
      "name": "maxMintAmount",
      "outputs": [
        {
          "internalType": "uint256",
          "name": "",
          "type": "uint256"
        }
      ],
      "stateMutability": "view",
      "type": "function",
      "constant": true
    },
    {
      "inputs": [],
      "name": "maxSupply",
      "outputs": [
        {
          "internalType": "uint256",
          "name": "",
          "type": "uint256"
        }
      ],
      "stateMutability": "view",
      "type": "function",
      "constant": true
    },
    {
      "inputs": [],
      "name": "name",
      "outputs": [
        {
          "internalType": "string",
          "name": "",
          "type": "string"
        }
      ],
      "stateMutability": "view",
      "type": "function",
      "constant": true
    },
    {
      "inputs": [],
      "name": "owner",
      "outputs": [
        {
          "internalType": "address",
          "name": "",
          "type": "address"
        }
      ],
      "stateMutability": "view",
      "type": "function",
      "constant": true
    },
    {
      "inputs": [
        {
          "internalType": "uint256",
          "name": "tokenId",
          "type": "uint256"
        }
      ],
      "name": "ownerOf",
      "outputs": [
        {
          "internalType": "address",
          "name": "",
          "type": "address"
        }
      ],
      "stateMutability": "view",
      "type": "function",
      "constant": true
    },
    {
      "inputs": [],
      "name": "paused",
      "outputs": [
        {
          "internalType": "bool",
          "name": "",
          "type": "bool"
        }
      ],
      "stateMutability": "view",
      "type": "function",
      "constant": true
    },
    {
      "inputs": [],
      "name": "renounceOwnership",
      "outputs": [],
      "stateMutability": "nonpayable",
      "type": "function"
    },
    {
      "inputs": [
        {
          "internalType": "address",
          "name": "from",
          "type": "address"
        },
        {
          "internalType": "address",
          "name": "to",
          "type": "address"
        },
        {
          "internalType": "uint256",
          "name": "tokenId",
          "type": "uint256"
        }
      ],
      "name": "safeTransferFrom",
      "outputs": [],
      "stateMutability": "nonpayable",
      "type": "function"
    },
    {
      "inputs": [
        {
          "internalType": "address",
          "name": "from",
          "type": "address"
        },
        {
          "internalType": "address",
          "name": "to",
          "type": "address"
        },
        {
          "internalType": "uint256",
          "name": "tokenId",
          "type": "uint256"
        },
        {
          "internalType": "bytes",
          "name": "data",
          "type": "bytes"
        }
      ],
      "name": "safeTransferFrom",
      "outputs": [],
      "stateMutability": "nonpayable",
      "type": "function"
    },
    {
      "inputs": [
        {
          "internalType": "address",
          "name": "operator",
          "type": "address"
        },
        {
          "internalType": "bool",
          "name": "approved",
          "type": "bool"
        }
      ],
      "name": "setApprovalForAll",
      "outputs": [],
      "stateMutability": "nonpayable",
      "type": "function"
    },
    {
      "inputs": [
        {
          "internalType": "bytes4",
          "name": "interfaceId",
          "type": "bytes4"
        }
      ],
      "name": "supportsInterface",
      "outputs": [
        {
          "internalType": "bool",
          "name": "",
          "type": "bool"
        }
      ],
      "stateMutability": "view",
      "type": "function",
      "constant": true
    },
    {
      "inputs": [],
      "name": "symbol",
      "outputs": [
        {
          "internalType": "string",
          "name": "",
          "type": "string"
        }
      ],
      "stateMutability": "view",
      "type": "function",
      "constant": true
    },
    {
      "inputs": [
        {
          "internalType": "uint256",
          "name": "index",
          "type": "uint256"
        }
      ],
      "name": "tokenByIndex",
      "outputs": [
        {
          "internalType": "uint256",
          "name": "",
          "type": "uint256"
        }
      ],
      "stateMutability": "view",
      "type": "function",
      "constant": true
    },
    {
      "inputs": [
        {
          "internalType": "address",
          "name": "owner",
          "type": "address"
        },
        {
          "internalType": "uint256",
          "name": "index",
          "type": "uint256"
        }
      ],
      "name": "tokenOfOwnerByIndex",
      "outputs": [
        {
          "internalType": "uint256",
          "name": "",
          "type": "uint256"
        }
      ],
      "stateMutability": "view",
      "type": "function",
      "constant": true
    },
    {
      "inputs": [],
      "name": "totalSupply",
      "outputs": [
        {
          "internalType": "uint256",
          "name": "",
          "type": "uint256"
        }
      ],
      "stateMutability": "view",
      "type": "function",
      "constant": true
    },
    {
      "inputs": [
        {
          "internalType": "address",
          "name": "from",
          "type": "address"
        },
        {
          "internalType": "address",
          "name": "to",
          "type": "address"
        },
        {
          "internalType": "uint256",
          "name": "tokenId",
          "type": "uint256"
        }
      ],
      "name": "transferFrom",
      "outputs": [],
      "stateMutability": "nonpayable",
      "type": "function"
    },
    {
      "inputs": [
        {
          "internalType": "address",
          "name": "newOwner",
          "type": "address"
        }
      ],
      "name": "transferOwnership",
      "outputs": [],
      "stateMutability": "nonpayable",
      "type": "function"
    },
    {
      "inputs": [
        {
          "internalType": "address",
          "name": "",
          "type": "address"
        }
      ],
      "name": "whitelisted",
      "outputs": [
        {
          "internalType": "bool",
          "name": "",
          "type": "bool"
        }
      ],
      "stateMutability": "view",
      "type": "function",
      "constant": true
    },
    {
      "inputs": [
        {
          "internalType": "address",
          "name": "_to",
          "type": "address"
        },
        {
          "internalType": "uint256",
          "name": "_mintAmount",
          "type": "uint256"
        }
      ],
      "name": "mint",
      "outputs": [],
      "stateMutability": "payable",
      "type": "function",
      "payable": true
    },
    {
      "inputs": [
        {
          "internalType": "address",
          "name": "_owner",
          "type": "address"
        }
      ],
      "name": "walletOfOwner",
      "outputs": [
        {
          "internalType": "uint256[]",
          "name": "",
          "type": "uint256[]"
        }
      ],
      "stateMutability": "view",
      "type": "function",
      "constant": true
    },
    {
      "inputs": [
        {
          "internalType": "uint256",
          "name": "tokenId",
          "type": "uint256"
        }
      ],
      "name": "tokenURI",
      "outputs": [
        {
          "internalType": "string",
          "name": "",
          "type": "string"
        }
      ],
      "stateMutability": "view",
      "type": "function",
      "constant": true
    },
    {
      "inputs": [
        {
          "internalType": "uint256",
          "name": "_newCost",
          "type": "uint256"
        }
      ],
      "name": "setCost",
      "outputs": [],
      "stateMutability": "nonpayable",
      "type": "function"
    },
    {
      "inputs": [
        {
          "internalType": "uint256",
          "name": "_newmaxMintAmount",
          "type": "uint256"
        }
      ],
      "name": "setmaxMintAmount",
      "outputs": [],
      "stateMutability": "nonpayable",
      "type": "function"
    },
    {
      "inputs": [
        {
          "internalType": "string",
          "name": "_newBaseURI",
          "type": "string"
        }
      ],
      "name": "setBaseURI",
      "outputs": [],
      "stateMutability": "nonpayable",
      "type": "function"
    },
    {
      "inputs": [
        {
          "internalType": "string",
          "name": "_newBaseExtension",
          "type": "string"
        }
      ],
      "name": "setBaseExtension",
      "outputs": [],
      "stateMutability": "nonpayable",
      "type": "function"
    },
    {
      "inputs": [
        {
          "internalType": "bool",
          "name": "_state",
          "type": "bool"
        }
      ],
      "name": "pause",
      "outputs": [],
      "stateMutability": "nonpayable",
      "type": "function"
    },
    {
      "inputs": [
        {
          "internalType": "address",
          "name": "_user",
          "type": "address"
        }
      ],
      "name": "whitelistUser",
      "outputs": [],
      "stateMutability": "nonpayable",
      "type": "function"
    },
    {
      "inputs": [
        {
          "internalType": "address",
          "name": "_user",
          "type": "address"
        }
      ],
      "name": "removeWhitelistUser",
      "outputs": [],
      "stateMutability": "nonpayable",
      "type": "function"
    },
    {
      "inputs": [],
      "name": "isclaimable",
      "outputs": [],
      "stateMutability": "nonpayable",
      "type": "function"
    },
    {
      "inputs": [],
      "name": "ReturnKeccak",
      "outputs": [
        {
          "internalType": "bytes",
          "name": "",
          "type": "bytes"
        }
      ],
      "stateMutability": "view",
      "type": "function",
      "constant": true
    }
  ],
  "bytecode": "0x60806040526040518060400160405280600581526020017f2e6a736f6e000000000000000000000000000000000000000000000000000000815250600c90816200004a9190620010df565b5066b1a2bc2ec50000600d55612710600e556014600f556000601060006101000a81548160ff0219169083151502179055506000601060016101000a81548160ff021916908315150217905550348015620000a457600080fd5b5060405162005a6d38038062005a6d8339818101604052810190620000ca91906200132a565b82828160009081620000dd9190620010df565b508060019081620000ef9190620010df565b50505062000112620001066200013f60201b60201c565b6200014760201b60201c565b62000123816200020d60201b60201c565b620001363360016200023260201b60201c565b505050620019c1565b600033905090565b6000600a60009054906101000a900473ffffffffffffffffffffffffffffffffffffffff16905081600a60006101000a81548173ffffffffffffffffffffffffffffffffffffffff021916908373ffffffffffffffffffffffffffffffffffffffff1602179055508173ffffffffffffffffffffffffffffffffffffffff168173ffffffffffffffffffffffffffffffffffffffff167f8be0079c531659141344cd1fd0a4f28419497f9722a3daafe3b4186f6b6457e060405160405180910390a35050565b6200021d620003a160201b60201c565b80600b90816200022e9190620010df565b5050565b6000620002446200043260201b60201c565b9050601060009054906101000a900460ff16156200026157600080fd5b600082116200026f57600080fd5b600f548211156200027f57600080fd5b600e54828262000290919062001412565b11156200029c57600080fd5b620002ac6200043f60201b60201c565b73ffffffffffffffffffffffffffffffffffffffff163373ffffffffffffffffffffffffffffffffffffffff1614620003575760011515601160003373ffffffffffffffffffffffffffffffffffffffff1673ffffffffffffffffffffffffffffffffffffffff16815260200190815260200160002060009054906101000a900460ff16151514620003565781600d546200034891906200144d565b3410156200035557600080fd5b5b5b6000600190505b8281116200039b576200038584828462000379919062001412565b6200046960201b60201c565b80806200039290620014ae565b9150506200035e565b50505050565b620003b16200013f60201b60201c565b73ffffffffffffffffffffffffffffffffffffffff16620003d76200043f60201b60201c565b73ffffffffffffffffffffffffffffffffffffffff161462000430576040517f08c379a000000000000000000000000000000000000000000000000000000000815260040162000427906200155c565b60405180910390fd5b565b6000600880549050905090565b6000600a60009054906101000a900473ffffffffffffffffffffffffffffffffffffffff16905090565b6200048b8282604051806020016040528060008152506200048f60201b60201c565b5050565b620004a18383620004fd60201b60201c565b620004b66000848484620006f660201b60201c565b620004f8576040517f08c379a0000000000000000000000000000000000000000000000000000000008152600401620004ef90620015f4565b60405180910390fd5b505050565b600073ffffffffffffffffffffffffffffffffffffffff168273ffffffffffffffffffffffffffffffffffffffff16036200056f576040517f08c379a0000000000000000000000000000000000000000000000000000000008152600401620005669062001666565b60405180910390fd5b62000580816200089f60201b60201c565b15620005c3576040517f08c379a0000000000000000000000000000000000000000000000000000000008152600401620005ba90620016d8565b60405180910390fd5b620005d7600083836200090b60201b60201c565b6001600360008473ffffffffffffffffffffffffffffffffffffffff1673ffffffffffffffffffffffffffffffffffffffff168152602001908152602001600020600082825462000629919062001412565b92505081905550816002600083815260200190815260200160002060006101000a81548173ffffffffffffffffffffffffffffffffffffffff021916908373ffffffffffffffffffffffffffffffffffffffff160217905550808273ffffffffffffffffffffffffffffffffffffffff16600073ffffffffffffffffffffffffffffffffffffffff167fddf252ad1be2c89b69c2b068fc378daa952ba7f163c4a11628f55a4df523b3ef60405160405180910390a4620006f26000838362000a5060201b60201c565b5050565b6000620007248473ffffffffffffffffffffffffffffffffffffffff1662000a5560201b6200167d1760201c565b1562000892578373ffffffffffffffffffffffffffffffffffffffff1663150b7a02620007566200013f60201b60201c565b8786866040518563ffffffff1660e01b81526004016200077a9493929190620017ad565b6020604051808303816000875af1925050508015620007b957506040513d601f19601f82011682018060405250810190620007b691906200185e565b60015b62000841573d8060008114620007ec576040519150601f19603f3d011682016040523d82523d6000602084013e620007f1565b606091505b50600081510362000839576040517f08c379a00000000000000000000000000000000000000000000000000000000081526004016200083090620015f4565b60405180910390fd5b805181602001fd5b63150b7a0260e01b7bffffffffffffffffffffffffffffffffffffffffffffffffffffffff1916817bffffffffffffffffffffffffffffffffffffffffffffffffffffffff19161491505062000897565b600190505b949350505050565b60008073ffffffffffffffffffffffffffffffffffffffff166002600084815260200190815260200160002060009054906101000a900473ffffffffffffffffffffffffffffffffffffffff1673ffffffffffffffffffffffffffffffffffffffff1614159050919050565b6200092383838362000a7860201b620016a01760201c565b600073ffffffffffffffffffffffffffffffffffffffff168373ffffffffffffffffffffffffffffffffffffffff16036200096f57620009698162000a7d60201b60201c565b620009b7565b8173ffffffffffffffffffffffffffffffffffffffff168373ffffffffffffffffffffffffffffffffffffffff1614620009b657620009b5838262000ac660201b60201c565b5b5b600073ffffffffffffffffffffffffffffffffffffffff168273ffffffffffffffffffffffffffffffffffffffff160362000a0357620009fd8162000c4360201b60201c565b62000a4b565b8273ffffffffffffffffffffffffffffffffffffffff168273ffffffffffffffffffffffffffffffffffffffff161462000a4a5762000a49828262000d1f60201b60201c565b5b5b505050565b505050565b6000808273ffffffffffffffffffffffffffffffffffffffff163b119050919050565b505050565b6008805490506009600083815260200190815260200160002081905550600881908060018154018082558091505060019003906000526020600020016000909190919091505550565b6000600162000ae08462000dab60201b620011ac1760201c565b62000aec919062001890565b905060006007600084815260200190815260200160002054905081811462000bd2576000600660008673ffffffffffffffffffffffffffffffffffffffff1673ffffffffffffffffffffffffffffffffffffffff168152602001908152602001600020600084815260200190815260200160002054905080600660008773ffffffffffffffffffffffffffffffffffffffff1673ffffffffffffffffffffffffffffffffffffffff168152602001908152602001600020600084815260200190815260200160002081905550816007600083815260200190815260200160002081905550505b6007600084815260200190815260200160002060009055600660008573ffffffffffffffffffffffffffffffffffffffff1673ffffffffffffffffffffffffffffffffffffffff16815260200190815260200160002060008381526020019081526020016000206000905550505050565b6000600160088054905062000c59919062001890565b905060006009600084815260200190815260200160002054905060006008838154811062000c8c5762000c8b620018cb565b5b90600052602060002001549050806008838154811062000cb15762000cb0620018cb565b5b90600052602060002001819055508160096000838152602001908152602001600020819055506009600085815260200190815260200160002060009055600880548062000d035762000d02620018fa565b5b6001900381819060005260206000200160009055905550505050565b600062000d378362000dab60201b620011ac1760201c565b905081600660008573ffffffffffffffffffffffffffffffffffffffff1673ffffffffffffffffffffffffffffffffffffffff168152602001908152602001600020600083815260200190815260200160002081905550806007600084815260200190815260200160002081905550505050565b60008073ffffffffffffffffffffffffffffffffffffffff168273ffffffffffffffffffffffffffffffffffffffff160362000e1e576040517f08c379a000000000000000000000000000000000000000000000000000000000815260040162000e15906200199f565b60405180910390fd5b600360008373ffffffffffffffffffffffffffffffffffffffff1673ffffffffffffffffffffffffffffffffffffffff168152602001908152602001600020549050919050565b600081519050919050565b7f4e487b7100000000000000000000000000000000000000000000000000000000600052604160045260246000fd5b7f4e487b7100000000000000000000000000000000000000000000000000000000600052602260045260246000fd5b6000600282049050600182168062000ee757607f821691505b60208210810362000efd5762000efc62000e9f565b5b50919050565b60008190508160005260206000209050919050565b60006020601f8301049050919050565b600082821b905092915050565b60006008830262000f677fffffffffffffffffffffffffffffffffffffffffffffffffffffffffffffffff8262000f28565b62000f73868362000f28565b95508019841693508086168417925050509392505050565b6000819050919050565b6000819050919050565b600062000fc062000fba62000fb48462000f8b565b62000f95565b62000f8b565b9050919050565b6000819050919050565b62000fdc8362000f9f565b62000ff462000feb8262000fc7565b84845462000f35565b825550505050565b600090565b6200100b62000ffc565b6200101881848462000fd1565b505050565b5b8181101562001040576200103460008262001001565b6001810190506200101e565b5050565b601f8211156200108f57620010598162000f03565b620010648462000f18565b8101602085101562001074578190505b6200108c620010838562000f18565b8301826200101d565b50505b505050565b600082821c905092915050565b6000620010b46000198460080262001094565b1980831691505092915050565b6000620010cf8383620010a1565b9150826002028217905092915050565b620010ea8262000e65565b67ffffffffffffffff81111562001106576200110562000e70565b5b62001112825462000ece565b6200111f82828562001044565b600060209050601f83116001811462001157576000841562001142578287015190505b6200114e8582620010c1565b865550620011be565b601f198416620011678662000f03565b60005b8281101562001191578489015182556001820191506020850194506020810190506200116a565b86831015620011b15784890151620011ad601f891682620010a1565b8355505b6001600288020188555050505b505050505050565b6000604051905090565b600080fd5b600080fd5b600080fd5b600080fd5b6000601f19601f8301169050919050565b6200120082620011e4565b810181811067ffffffffffffffff8211171562001222576200122162000e70565b5b80604052505050565b600062001237620011c6565b9050620012458282620011f5565b919050565b600067ffffffffffffffff82111562001268576200126762000e70565b5b6200127382620011e4565b9050602081019050919050565b60005b83811015620012a057808201518184015260208101905062001283565b60008484015250505050565b6000620012c3620012bd846200124a565b6200122b565b905082815260208101848484011115620012e257620012e1620011df565b5b620012ef84828562001280565b509392505050565b600082601f8301126200130f576200130e620011da565b5b815162001321848260208601620012ac565b91505092915050565b600080600060608486031215620013465762001345620011d0565b5b600084015167ffffffffffffffff811115620013675762001366620011d5565b5b6200137586828701620012f7565b935050602084015167ffffffffffffffff811115620013995762001398620011d5565b5b620013a786828701620012f7565b925050604084015167ffffffffffffffff811115620013cb57620013ca620011d5565b5b620013d986828701620012f7565b9150509250925092565b7f4e487b7100000000000000000000000000000000000000000000000000000000600052601160045260246000fd5b60006200141f8262000f8b565b91506200142c8362000f8b565b9250828201905080821115620014475762001446620013e3565b5b92915050565b60006200145a8262000f8b565b9150620014678362000f8b565b9250817fffffffffffffffffffffffffffffffffffffffffffffffffffffffffffffffff0483118215151615620014a357620014a2620013e3565b5b828202905092915050565b6000620014bb8262000f8b565b91507fffffffffffffffffffffffffffffffffffffffffffffffffffffffffffffffff8203620014f057620014ef620013e3565b5b600182019050919050565b600082825260208201905092915050565b7f4f776e61626c653a2063616c6c6572206973206e6f7420746865206f776e6572600082015250565b600062001544602083620014fb565b915062001551826200150c565b602082019050919050565b60006020820190508181036000830152620015778162001535565b9050919050565b7f4552433732313a207472616e7366657220746f206e6f6e20455243373231526560008201527f63656976657220696d706c656d656e7465720000000000000000000000000000602082015250565b6000620015dc603283620014fb565b9150620015e9826200157e565b604082019050919050565b600060208201905081810360008301526200160f81620015cd565b9050919050565b7f4552433732313a206d696e7420746f20746865207a65726f2061646472657373600082015250565b60006200164e602083620014fb565b91506200165b8262001616565b602082019050919050565b6000602082019050818103600083015262001681816200163f565b9050919050565b7f4552433732313a20746f6b656e20616c7265616479206d696e74656400000000600082015250565b6000620016c0601c83620014fb565b9150620016cd8262001688565b602082019050919050565b60006020820190508181036000830152620016f381620016b1565b9050919050565b600073ffffffffffffffffffffffffffffffffffffffff82169050919050565b60006200172782620016fa565b9050919050565b62001739816200171a565b82525050565b6200174a8162000f8b565b82525050565b600081519050919050565b600082825260208201905092915050565b6000620017798262001750565b6200178581856200175b565b93506200179781856020860162001280565b620017a281620011e4565b840191505092915050565b6000608082019050620017c460008301876200172e565b620017d360208301866200172e565b620017e260408301856200173f565b8181036060830152620017f681846200176c565b905095945050505050565b60007fffffffff0000000000000000000000000000000000000000000000000000000082169050919050565b620018388162001801565b81146200184457600080fd5b50565b60008151905062001858816200182d565b92915050565b600060208284031215620018775762001876620011d0565b5b6000620018878482850162001847565b91505092915050565b60006200189d8262000f8b565b9150620018aa8362000f8b565b9250828203905081811115620018c557620018c4620013e3565b5b92915050565b7f4e487b7100000000000000000000000000000000000000000000000000000000600052603260045260246000fd5b7f4e487b7100000000000000000000000000000000000000000000000000000000600052603160045260246000fd5b7f4552433732313a2061646472657373207a65726f206973206e6f74206120766160008201527f6c6964206f776e65720000000000000000000000000000000000000000000000602082015250565b600062001987602983620014fb565b9150620019948262001929565b604082019050919050565b60006020820190508181036000830152620019ba8162001978565b9050919050565b61409c80620019d16000396000f3fe6080604052600436106102255760003560e01c80636352211e11610123578063b88d4fde116100ab578063da3ef23f1161006f578063da3ef23f1461081e578063e3323aba14610847578063e985e9c514610872578063f2fde38b146108af578063f4a217d3146108d857610225565b8063b88d4fde14610725578063c66828621461074e578063c87b56dd14610779578063d5abeb01146107b6578063d936547e146107e157610225565b8063715018a6116100f2578063715018a6146106665780637f00c7a61461067d5780638da5cb5b146106a657806395d89b41146106d1578063a22cb465146106fc57610225565b80636352211e14610596578063672ca474146105d35780636c0360eb146105fe57806370a082311461062957610225565b80632f745c59116101b157806344a0d68a1161017557806344a0d68a146104b35780634a4c560d146104dc5780634f6ccce71461050557806355f804b3146105425780635c975abb1461056b57610225565b80632f745c59146103cb57806330cc7ae01461040857806340c10f191461043157806342842e0e1461044d578063438b63001461047657610225565b8063095ea7b3116101f8578063095ea7b3146102f857806313faede61461032157806318160ddd1461034c578063239c70ae1461037757806323b872dd146103a257610225565b806301ffc9a71461022a57806302329a291461026757806306fdde0314610290578063081812fc146102bb575b600080fd5b34801561023657600080fd5b50610251600480360381019061024c91906129c4565b6108ef565b60405161025e9190612a0c565b60405180910390f35b34801561027357600080fd5b5061028e60048036038101906102899190612a53565b610969565b005b34801561029c57600080fd5b506102a561098e565b6040516102b29190612b10565b60405180910390f35b3480156102c757600080fd5b506102e260048036038101906102dd9190612b68565b610a20565b6040516102ef9190612bd6565b60405180910390f35b34801561030457600080fd5b5061031f600480360381019061031a9190612c1d565b610a66565b005b34801561032d57600080fd5b50610336610b7d565b6040516103439190612c6c565b60405180910390f35b34801561035857600080fd5b50610361610b83565b60405161036e9190612c6c565b60405180910390f35b34801561038357600080fd5b5061038c610b90565b6040516103999190612c6c565b60405180910390f35b3480156103ae57600080fd5b506103c960048036038101906103c49190612c87565b610b96565b005b3480156103d757600080fd5b506103f260048036038101906103ed9190612c1d565b610bf6565b6040516103ff9190612c6c565b60405180910390f35b34801561041457600080fd5b5061042f600480360381019061042a9190612cda565b610c9b565b005b61044b60048036038101906104469190612c1d565b610cfe565b005b34801561045957600080fd5b50610474600480360381019061046f9190612c87565b610e44565b005b34801561048257600080fd5b5061049d60048036038101906104989190612cda565b610e64565b6040516104aa9190612dc5565b60405180910390f35b3480156104bf57600080fd5b506104da60048036038101906104d59190612b68565b610f12565b005b3480156104e857600080fd5b5061050360048036038101906104fe9190612cda565b610f24565b005b34801561051157600080fd5b5061052c60048036038101906105279190612b68565b610f87565b6040516105399190612c6c565b60405180910390f35b34801561054e57600080fd5b5061056960048036038101906105649190612f1c565b610ff8565b005b34801561057757600080fd5b50610580611013565b60405161058d9190612a0c565b60405180910390f35b3480156105a257600080fd5b506105bd60048036038101906105b89190612b68565b611026565b6040516105ca9190612bd6565b60405180910390f35b3480156105df57600080fd5b506105e86110d7565b6040516105f59190612fba565b60405180910390f35b34801561060a57600080fd5b5061061361111e565b6040516106209190612b10565b60405180910390f35b34801561063557600080fd5b50610650600480360381019061064b9190612cda565b6111ac565b60405161065d9190612c6c565b60405180910390f35b34801561067257600080fd5b5061067b611263565b005b34801561068957600080fd5b506106a4600480360381019061069f9190612b68565b611277565b005b3480156106b257600080fd5b506106bb611289565b6040516106c89190612bd6565b60405180910390f35b3480156106dd57600080fd5b506106e66112b3565b6040516106f39190612b10565b60405180910390f35b34801561070857600080fd5b50610723600480360381019061071e9190612fdc565b611345565b005b34801561073157600080fd5b5061074c600480360381019061074791906130bd565b61135b565b005b34801561075a57600080fd5b506107636113bd565b6040516107709190612b10565b60405180910390f35b34801561078557600080fd5b506107a0600480360381019061079b9190612b68565b61144b565b6040516107ad9190612b10565b60405180910390f35b3480156107c257600080fd5b506107cb6114f5565b6040516107d89190612c6c565b60405180910390f35b3480156107ed57600080fd5b5061080860048036038101906108039190612cda565b6114fb565b6040516108159190612a0c565b60405180910390f35b34801561082a57600080fd5b5061084560048036038101906108409190612f1c565b61151b565b005b34801561085357600080fd5b5061085c611536565b6040516108699190612a0c565b60405180910390f35b34801561087e57600080fd5b5061089960048036038101906108949190613140565b611549565b6040516108a69190612a0c565b60405180910390f35b3480156108bb57600080fd5b506108d660048036038101906108d19190612cda565b6115dd565b005b3480156108e457600080fd5b506108ed611660565b005b60007f780e9d63000000000000000000000000000000000000000000000000000000007bffffffffffffffffffffffffffffffffffffffffffffffffffffffff1916827bffffffffffffffffffffffffffffffffffffffffffffffffffffffff191614806109625750610961826116a5565b5b9050919050565b610971611787565b80601060006101000a81548160ff02191690831515021790555050565b60606000805461099d906131af565b80601f01602080910402602001604051908101604052809291908181526020018280546109c9906131af565b8015610a165780601f106109eb57610100808354040283529160200191610a16565b820191906000526020600020905b8154815290600101906020018083116109f957829003601f168201915b5050505050905090565b6000610a2b82611805565b6004600083815260200190815260200160002060009054906101000a900473ffffffffffffffffffffffffffffffffffffffff169050919050565b6000610a7182611026565b90508073ffffffffffffffffffffffffffffffffffffffff168373ffffffffffffffffffffffffffffffffffffffff1603610ae1576040517f08c379a0000000000000000000000000000000000000000000000000000000008152600401610ad890613252565b60405180910390fd5b8073ffffffffffffffffffffffffffffffffffffffff16610b00611850565b73ffffffffffffffffffffffffffffffffffffffff161480610b2f5750610b2e81610b29611850565b611549565b5b610b6e576040517f08c379a0000000000000000000000000000000000000000000000000000000008152600401610b65906132e4565b60405180910390fd5b610b788383611858565b505050565b600d5481565b6000600880549050905090565b600f5481565b610ba7610ba1611850565b82611911565b610be6576040517f08c379a0000000000000000000000000000000000000000000000000000000008152600401610bdd90613376565b60405180910390fd5b610bf18383836119a6565b505050565b6000610c01836111ac565b8210610c42576040517f08c379a0000000000000000000000000000000000000000000000000000000008152600401610c3990613408565b60405180910390fd5b600660008473ffffffffffffffffffffffffffffffffffffffff1673ffffffffffffffffffffffffffffffffffffffff168152602001908152602001600020600083815260200190815260200160002054905092915050565b610ca3611787565b6000601160008373ffffffffffffffffffffffffffffffffffffffff1673ffffffffffffffffffffffffffffffffffffffff16815260200190815260200160002060006101000a81548160ff02191690831515021790555050565b6000610d08610b83565b9050601060009054906101000a900460ff1615610d2457600080fd5b60008211610d3157600080fd5b600f54821115610d4057600080fd5b600e548282610d4f9190613457565b1115610d5a57600080fd5b610d62611289565b73ffffffffffffffffffffffffffffffffffffffff163373ffffffffffffffffffffffffffffffffffffffff1614610e085760011515601160003373ffffffffffffffffffffffffffffffffffffffff1673ffffffffffffffffffffffffffffffffffffffff16815260200190815260200160002060009054906101000a900460ff16151514610e075781600d54610dfa919061348b565b341015610e0657600080fd5b5b5b6000600190505b828111610e3e57610e2b848284610e269190613457565b611c0c565b8080610e36906134e5565b915050610e0f565b50505050565b610e5f8383836040518060200160405280600081525061135b565b505050565b60606000610e71836111ac565b905060008167ffffffffffffffff811115610e8f57610e8e612df1565b5b604051908082528060200260200182016040528015610ebd5781602001602082028036833780820191505090505b50905060005b82811015610f0757610ed58582610bf6565b828281518110610ee857610ee761352d565b5b6020026020010181815250508080610eff906134e5565b915050610ec3565b508092505050919050565b610f1a611787565b80600d8190555050565b610f2c611787565b6001601160008373ffffffffffffffffffffffffffffffffffffffff1673ffffffffffffffffffffffffffffffffffffffff16815260200190815260200160002060006101000a81548160ff02191690831515021790555050565b6000610f91610b83565b8210610fd2576040517f08c379a0000000000000000000000000000000000000000000000000000000008152600401610fc9906135ce565b60405180910390fd5b60088281548110610fe657610fe561352d565b5b90600052602060002001549050919050565b611000611787565b80600b908161100f919061379a565b5050565b601060009054906101000a900460ff1681565b6000806002600084815260200190815260200160002060009054906101000a900473ffffffffffffffffffffffffffffffffffffffff169050600073ffffffffffffffffffffffffffffffffffffffff168173ffffffffffffffffffffffffffffffffffffffff16036110ce576040517f08c379a00000000000000000000000000000000000000000000000000000000081526004016110c5906138b8565b60405180910390fd5b80915050919050565b6060601060019054906101000a900460ff166110f257600080fd5b600060019050806040516020016111099190612a0c565b60405160208183030381529060405291505090565b600b805461112b906131af565b80601f0160208091040260200160405190810160405280929190818152602001828054611157906131af565b80156111a45780601f10611179576101008083540402835291602001916111a4565b820191906000526020600020905b81548152906001019060200180831161118757829003601f168201915b505050505081565b60008073ffffffffffffffffffffffffffffffffffffffff168273ffffffffffffffffffffffffffffffffffffffff160361121c576040517f08c379a00000000000000000000000000000000000000000000000000000000081526004016112139061394a565b60405180910390fd5b600360008373ffffffffffffffffffffffffffffffffffffffff1673ffffffffffffffffffffffffffffffffffffffff168152602001908152602001600020549050919050565b61126b611787565b6112756000611c2a565b565b61127f611787565b80600f8190555050565b6000600a60009054906101000a900473ffffffffffffffffffffffffffffffffffffffff16905090565b6060600180546112c2906131af565b80601f01602080910402602001604051908101604052809291908181526020018280546112ee906131af565b801561133b5780601f106113105761010080835404028352916020019161133b565b820191906000526020600020905b81548152906001019060200180831161131e57829003601f168201915b5050505050905090565b611357611350611850565b8383611cf0565b5050565b61136c611366611850565b83611911565b6113ab576040517f08c379a00000000000000000000000000000000000000000000000000000000081526004016113a290613376565b60405180910390fd5b6113b784848484611e5c565b50505050565b600c80546113ca906131af565b80601f01602080910402602001604051908101604052809291908181526020018280546113f6906131af565b80156114435780601f1061141857610100808354040283529160200191611443565b820191906000526020600020905b81548152906001019060200180831161142657829003601f168201915b505050505081565b606061145682611eb8565b611495576040517f08c379a000000000000000000000000000000000000000000000000000000000815260040161148c906139dc565b60405180910390fd5b600061149f611f24565b905060008151116114bf57604051806020016040528060008152506114ed565b806114c984611fb6565b600c6040516020016114dd93929190613abb565b6040516020818303038152906040525b915050919050565b600e5481565b60116020528060005260406000206000915054906101000a900460ff1681565b611523611787565b80600c9081611532919061379a565b5050565b601060019054906101000a900460ff1681565b6000600560008473ffffffffffffffffffffffffffffffffffffffff1673ffffffffffffffffffffffffffffffffffffffff16815260200190815260200160002060008373ffffffffffffffffffffffffffffffffffffffff1673ffffffffffffffffffffffffffffffffffffffff16815260200190815260200160002060009054906101000a900460ff16905092915050565b6115e5611787565b600073ffffffffffffffffffffffffffffffffffffffff168173ffffffffffffffffffffffffffffffffffffffff1603611654576040517f08c379a000000000000000000000000000000000000000000000000000000000815260040161164b90613b5e565b60405180910390fd5b61165d81611c2a565b50565b6001601060016101000a81548160ff021916908315150217905550565b6000808273ffffffffffffffffffffffffffffffffffffffff163b119050919050565b505050565b60007f80ac58cd000000000000000000000000000000000000000000000000000000007bffffffffffffffffffffffffffffffffffffffffffffffffffffffff1916827bffffffffffffffffffffffffffffffffffffffffffffffffffffffff1916148061177057507f5b5e139f000000000000000000000000000000000000000000000000000000007bffffffffffffffffffffffffffffffffffffffffffffffffffffffff1916827bffffffffffffffffffffffffffffffffffffffffffffffffffffffff1916145b80611780575061177f82612116565b5b9050919050565b61178f611850565b73ffffffffffffffffffffffffffffffffffffffff166117ad611289565b73ffffffffffffffffffffffffffffffffffffffff1614611803576040517f08c379a00000000000000000000000000000000000000000000000000000000081526004016117fa90613bca565b60405180910390fd5b565b61180e81611eb8565b61184d576040517f08c379a0000000000000000000000000000000000000000000000000000000008152600401611844906138b8565b60405180910390fd5b50565b600033905090565b816004600083815260200190815260200160002060006101000a81548173ffffffffffffffffffffffffffffffffffffffff021916908373ffffffffffffffffffffffffffffffffffffffff160217905550808273ffffffffffffffffffffffffffffffffffffffff166118cb83611026565b73ffffffffffffffffffffffffffffffffffffffff167f8c5be1e5ebec7d5bd14f71427d1e84f3dd0314c0f7b2291e5b200ac8c7c3b92560405160405180910390a45050565b60008061191d83611026565b90508073ffffffffffffffffffffffffffffffffffffffff168473ffffffffffffffffffffffffffffffffffffffff16148061195f575061195e8185611549565b5b8061199d57508373ffffffffffffffffffffffffffffffffffffffff1661198584610a20565b73ffffffffffffffffffffffffffffffffffffffff16145b91505092915050565b8273ffffffffffffffffffffffffffffffffffffffff166119c682611026565b73ffffffffffffffffffffffffffffffffffffffff1614611a1c576040517f08c379a0000000000000000000000000000000000000000000000000000000008152600401611a1390613c5c565b60405180910390fd5b600073ffffffffffffffffffffffffffffffffffffffff168273ffffffffffffffffffffffffffffffffffffffff1603611a8b576040517f08c379a0000000000000000000000000000000000000000000000000000000008152600401611a8290613cee565b60405180910390fd5b611a96838383612180565b611aa1600082611858565b6001600360008573ffffffffffffffffffffffffffffffffffffffff1673ffffffffffffffffffffffffffffffffffffffff1681526020019081526020016000206000828254611af19190613d0e565b925050819055506001600360008473ffffffffffffffffffffffffffffffffffffffff1673ffffffffffffffffffffffffffffffffffffffff1681526020019081526020016000206000828254611b489190613457565b92505081905550816002600083815260200190815260200160002060006101000a81548173ffffffffffffffffffffffffffffffffffffffff021916908373ffffffffffffffffffffffffffffffffffffffff160217905550808273ffffffffffffffffffffffffffffffffffffffff168473ffffffffffffffffffffffffffffffffffffffff167fddf252ad1be2c89b69c2b068fc378daa952ba7f163c4a11628f55a4df523b3ef60405160405180910390a4611c07838383612292565b505050565b611c26828260405180602001604052806000815250612297565b5050565b6000600a60009054906101000a900473ffffffffffffffffffffffffffffffffffffffff16905081600a60006101000a81548173ffffffffffffffffffffffffffffffffffffffff021916908373ffffffffffffffffffffffffffffffffffffffff1602179055508173ffffffffffffffffffffffffffffffffffffffff168173ffffffffffffffffffffffffffffffffffffffff167f8be0079c531659141344cd1fd0a4f28419497f9722a3daafe3b4186f6b6457e060405160405180910390a35050565b8173ffffffffffffffffffffffffffffffffffffffff168373ffffffffffffffffffffffffffffffffffffffff1603611d5e576040517f08c379a0000000000000000000000000000000000000000000000000000000008152600401611d5590613d8e565b60405180910390fd5b80600560008573ffffffffffffffffffffffffffffffffffffffff1673ffffffffffffffffffffffffffffffffffffffff16815260200190815260200160002060008473ffffffffffffffffffffffffffffffffffffffff1673ffffffffffffffffffffffffffffffffffffffff16815260200190815260200160002060006101000a81548160ff0219169083151502179055508173ffffffffffffffffffffffffffffffffffffffff168373ffffffffffffffffffffffffffffffffffffffff167f17307eab39ab6107e8899845ad3d59bd9653f200f220920489ca2b5937696c3183604051611e4f9190612a0c565b60405180910390a3505050565b611e678484846119a6565b611e73848484846122f2565b611eb2576040517f08c379a0000000000000000000000000000000000000000000000000000000008152600401611ea990613e20565b60405180910390fd5b50505050565b60008073ffffffffffffffffffffffffffffffffffffffff166002600084815260200190815260200160002060009054906101000a900473ffffffffffffffffffffffffffffffffffffffff1673ffffffffffffffffffffffffffffffffffffffff1614159050919050565b6060600b8054611f33906131af565b80601f0160208091040260200160405190810160405280929190818152602001828054611f5f906131af565b8015611fac5780601f10611f8157610100808354040283529160200191611fac565b820191906000526020600020905b815481529060010190602001808311611f8f57829003601f168201915b5050505050905090565b606060008203611ffd576040518060400160405280600181526020017f30000000000000000000000000000000000000000000000000000000000000008152509050612111565b600082905060005b6000821461202f578080612018906134e5565b915050600a826120289190613e6f565b9150612005565b60008167ffffffffffffffff81111561204b5761204a612df1565b5b6040519080825280601f01601f19166020018201604052801561207d5781602001600182028036833780820191505090505b5090505b6000851461210a576001826120969190613d0e565b9150600a856120a59190613ea0565b60306120b19190613457565b60f81b8183815181106120c7576120c661352d565b5b60200101907effffffffffffffffffffffffffffffffffffffffffffffffffffffffffffff1916908160001a905350600a856121039190613e6f565b9450612081565b8093505050505b919050565b60007f01ffc9a7000000000000000000000000000000000000000000000000000000007bffffffffffffffffffffffffffffffffffffffffffffffffffffffff1916827bffffffffffffffffffffffffffffffffffffffffffffffffffffffff1916149050919050565b61218b8383836116a0565b600073ffffffffffffffffffffffffffffffffffffffff168373ffffffffffffffffffffffffffffffffffffffff16036121cd576121c881612479565b61220c565b8173ffffffffffffffffffffffffffffffffffffffff168373ffffffffffffffffffffffffffffffffffffffff161461220b5761220a83826124c2565b5b5b600073ffffffffffffffffffffffffffffffffffffffff168273ffffffffffffffffffffffffffffffffffffffff160361224e576122498161262f565b61228d565b8273ffffffffffffffffffffffffffffffffffffffff168273ffffffffffffffffffffffffffffffffffffffff161461228c5761228b8282612700565b5b5b505050565b505050565b6122a1838361277f565b6122ae60008484846122f2565b6122ed576040517f08c379a00000000000000000000000000000000000000000000000000000000081526004016122e490613e20565b60405180910390fd5b505050565b60006123138473ffffffffffffffffffffffffffffffffffffffff1661167d565b1561246c578373ffffffffffffffffffffffffffffffffffffffff1663150b7a0261233c611850565b8786866040518563ffffffff1660e01b815260040161235e9493929190613ed1565b6020604051808303816000875af192505050801561239a57506040513d601f19601f820116820180604052508101906123979190613f32565b60015b61241c573d80600081146123ca576040519150601f19603f3d011682016040523d82523d6000602084013e6123cf565b606091505b506000815103612414576040517f08c379a000000000000000000000000000000000000000000000000000000000815260040161240b90613e20565b60405180910390fd5b805181602001fd5b63150b7a0260e01b7bffffffffffffffffffffffffffffffffffffffffffffffffffffffff1916817bffffffffffffffffffffffffffffffffffffffffffffffffffffffff191614915050612471565b600190505b949350505050565b6008805490506009600083815260200190815260200160002081905550600881908060018154018082558091505060019003906000526020600020016000909190919091505550565b600060016124cf846111ac565b6124d99190613d0e565b90506000600760008481526020019081526020016000205490508181146125be576000600660008673ffffffffffffffffffffffffffffffffffffffff1673ffffffffffffffffffffffffffffffffffffffff168152602001908152602001600020600084815260200190815260200160002054905080600660008773ffffffffffffffffffffffffffffffffffffffff1673ffffffffffffffffffffffffffffffffffffffff168152602001908152602001600020600084815260200190815260200160002081905550816007600083815260200190815260200160002081905550505b6007600084815260200190815260200160002060009055600660008573ffffffffffffffffffffffffffffffffffffffff1673ffffffffffffffffffffffffffffffffffffffff16815260200190815260200160002060008381526020019081526020016000206000905550505050565b600060016008805490506126439190613d0e565b90506000600960008481526020019081526020016000205490506000600883815481106126735761267261352d565b5b9060005260206000200154905080600883815481106126955761269461352d565b5b9060005260206000200181905550816009600083815260200190815260200160002081905550600960008581526020019081526020016000206000905560088054806126e4576126e3613f5f565b5b6001900381819060005260206000200160009055905550505050565b600061270b836111ac565b905081600660008573ffffffffffffffffffffffffffffffffffffffff1673ffffffffffffffffffffffffffffffffffffffff168152602001908152602001600020600083815260200190815260200160002081905550806007600084815260200190815260200160002081905550505050565b600073ffffffffffffffffffffffffffffffffffffffff168273ffffffffffffffffffffffffffffffffffffffff16036127ee576040517f08c379a00000000000000000000000000000000000000000000000000000000081526004016127e590613fda565b60405180910390fd5b6127f781611eb8565b15612837576040517f08c379a000000000000000000000000000000000000000000000000000000000815260040161282e90614046565b60405180910390fd5b61284360008383612180565b6001600360008473ffffffffffffffffffffffffffffffffffffffff1673ffffffffffffffffffffffffffffffffffffffff16815260200190815260200160002060008282546128939190613457565b92505081905550816002600083815260200190815260200160002060006101000a81548173ffffffffffffffffffffffffffffffffffffffff021916908373ffffffffffffffffffffffffffffffffffffffff160217905550808273ffffffffffffffffffffffffffffffffffffffff16600073ffffffffffffffffffffffffffffffffffffffff167fddf252ad1be2c89b69c2b068fc378daa952ba7f163c4a11628f55a4df523b3ef60405160405180910390a461295460008383612292565b5050565b6000604051905090565b600080fd5b600080fd5b60007fffffffff0000000000000000000000000000000000000000000000000000000082169050919050565b6129a18161296c565b81146129ac57600080fd5b50565b6000813590506129be81612998565b92915050565b6000602082840312156129da576129d9612962565b5b60006129e8848285016129af565b91505092915050565b60008115159050919050565b612a06816129f1565b82525050565b6000602082019050612a2160008301846129fd565b92915050565b612a30816129f1565b8114612a3b57600080fd5b50565b600081359050612a4d81612a27565b92915050565b600060208284031215612a6957612a68612962565b5b6000612a7784828501612a3e565b91505092915050565b600081519050919050565b600082825260208201905092915050565b60005b83811015612aba578082015181840152602081019050612a9f565b60008484015250505050565b6000601f19601f8301169050919050565b6000612ae282612a80565b612aec8185612a8b565b9350612afc818560208601612a9c565b612b0581612ac6565b840191505092915050565b60006020820190508181036000830152612b2a8184612ad7565b905092915050565b6000819050919050565b612b4581612b32565b8114612b5057600080fd5b50565b600081359050612b6281612b3c565b92915050565b600060208284031215612b7e57612b7d612962565b5b6000612b8c84828501612b53565b91505092915050565b600073ffffffffffffffffffffffffffffffffffffffff82169050919050565b6000612bc082612b95565b9050919050565b612bd081612bb5565b82525050565b6000602082019050612beb6000830184612bc7565b92915050565b612bfa81612bb5565b8114612c0557600080fd5b50565b600081359050612c1781612bf1565b92915050565b60008060408385031215612c3457612c33612962565b5b6000612c4285828601612c08565b9250506020612c5385828601612b53565b9150509250929050565b612c6681612b32565b82525050565b6000602082019050612c816000830184612c5d565b92915050565b600080600060608486031215612ca057612c9f612962565b5b6000612cae86828701612c08565b9350506020612cbf86828701612c08565b9250506040612cd086828701612b53565b9150509250925092565b600060208284031215612cf057612cef612962565b5b6000612cfe84828501612c08565b91505092915050565b600081519050919050565b600082825260208201905092915050565b6000819050602082019050919050565b612d3c81612b32565b82525050565b6000612d4e8383612d33565b60208301905092915050565b6000602082019050919050565b6000612d7282612d07565b612d7c8185612d12565b9350612d8783612d23565b8060005b83811015612db8578151612d9f8882612d42565b9750612daa83612d5a565b925050600181019050612d8b565b5085935050505092915050565b60006020820190508181036000830152612ddf8184612d67565b905092915050565b600080fd5b600080fd5b7f4e487b7100000000000000000000000000000000000000000000000000000000600052604160045260246000fd5b612e2982612ac6565b810181811067ffffffffffffffff82111715612e4857612e47612df1565b5b80604052505050565b6000612e5b612958565b9050612e678282612e20565b919050565b600067ffffffffffffffff821115612e8757612e86612df1565b5b612e9082612ac6565b9050602081019050919050565b82818337600083830152505050565b6000612ebf612eba84612e6c565b612e51565b905082815260208101848484011115612edb57612eda612dec565b5b612ee6848285612e9d565b509392505050565b600082601f830112612f0357612f02612de7565b5b8135612f13848260208601612eac565b91505092915050565b600060208284031215612f3257612f31612962565b5b600082013567ffffffffffffffff811115612f5057612f4f612967565b5b612f5c84828501612eee565b91505092915050565b600081519050919050565b600082825260208201905092915050565b6000612f8c82612f65565b612f968185612f70565b9350612fa6818560208601612a9c565b612faf81612ac6565b840191505092915050565b60006020820190508181036000830152612fd48184612f81565b905092915050565b60008060408385031215612ff357612ff2612962565b5b600061300185828601612c08565b925050602061301285828601612a3e565b9150509250929050565b600067ffffffffffffffff82111561303757613036612df1565b5b61304082612ac6565b9050602081019050919050565b600061306061305b8461301c565b612e51565b90508281526020810184848401111561307c5761307b612dec565b5b613087848285612e9d565b509392505050565b600082601f8301126130a4576130a3612de7565b5b81356130b484826020860161304d565b91505092915050565b600080600080608085870312156130d7576130d6612962565b5b60006130e587828801612c08565b94505060206130f687828801612c08565b935050604061310787828801612b53565b925050606085013567ffffffffffffffff81111561312857613127612967565b5b6131348782880161308f565b91505092959194509250565b6000806040838503121561315757613156612962565b5b600061316585828601612c08565b925050602061317685828601612c08565b9150509250929050565b7f4e487b7100000000000000000000000000000000000000000000000000000000600052602260045260246000fd5b600060028204905060018216806131c757607f821691505b6020821081036131da576131d9613180565b5b50919050565b7f4552433732313a20617070726f76616c20746f2063757272656e74206f776e6560008201527f7200000000000000000000000000000000000000000000000000000000000000602082015250565b600061323c602183612a8b565b9150613247826131e0565b604082019050919050565b6000602082019050818103600083015261326b8161322f565b9050919050565b7f4552433732313a20617070726f76652063616c6c6572206973206e6f7420746f60008201527f6b656e206f776e6572206e6f7220617070726f76656420666f7220616c6c0000602082015250565b60006132ce603e83612a8b565b91506132d982613272565b604082019050919050565b600060208201905081810360008301526132fd816132c1565b9050919050565b7f4552433732313a2063616c6c6572206973206e6f7420746f6b656e206f776e6560008201527f72206e6f7220617070726f766564000000000000000000000000000000000000602082015250565b6000613360602e83612a8b565b915061336b82613304565b604082019050919050565b6000602082019050818103600083015261338f81613353565b9050919050565b7f455243373231456e756d657261626c653a206f776e657220696e646578206f7560008201527f74206f6620626f756e6473000000000000000000000000000000000000000000602082015250565b60006133f2602b83612a8b565b91506133fd82613396565b604082019050919050565b60006020820190508181036000830152613421816133e5565b9050919050565b7f4e487b7100000000000000000000000000000000000000000000000000000000600052601160045260246000fd5b600061346282612b32565b915061346d83612b32565b925082820190508082111561348557613484613428565b5b92915050565b600061349682612b32565b91506134a183612b32565b9250817fffffffffffffffffffffffffffffffffffffffffffffffffffffffffffffffff04831182151516156134da576134d9613428565b5b828202905092915050565b60006134f082612b32565b91507fffffffffffffffffffffffffffffffffffffffffffffffffffffffffffffffff820361352257613521613428565b5b600182019050919050565b7f4e487b7100000000000000000000000000000000000000000000000000000000600052603260045260246000fd5b7f455243373231456e756d657261626c653a20676c6f62616c20696e646578206f60008201527f7574206f6620626f756e64730000000000000000000000000000000000000000602082015250565b60006135b8602c83612a8b565b91506135c38261355c565b604082019050919050565b600060208201905081810360008301526135e7816135ab565b9050919050565b60008190508160005260206000209050919050565b60006020601f8301049050919050565b600082821b905092915050565b6000600883026136507fffffffffffffffffffffffffffffffffffffffffffffffffffffffffffffffff82613613565b61365a8683613613565b95508019841693508086168417925050509392505050565b6000819050919050565b600061369761369261368d84612b32565b613672565b612b32565b9050919050565b6000819050919050565b6136b18361367c565b6136c56136bd8261369e565b848454613620565b825550505050565b600090565b6136da6136cd565b6136e58184846136a8565b505050565b5b81811015613709576136fe6000826136d2565b6001810190506136eb565b5050565b601f82111561374e5761371f816135ee565b61372884613603565b81016020851015613737578190505b61374b61374385613603565b8301826136ea565b50505b505050565b600082821c905092915050565b600061377160001984600802613753565b1980831691505092915050565b600061378a8383613760565b9150826002028217905092915050565b6137a382612a80565b67ffffffffffffffff8111156137bc576137bb612df1565b5b6137c682546131af565b6137d182828561370d565b600060209050601f83116001811461380457600084156137f2578287015190505b6137fc858261377e565b865550613864565b601f198416613812866135ee565b60005b8281101561383a57848901518255600182019150602085019450602081019050613815565b868310156138575784890151613853601f891682613760565b8355505b6001600288020188555050505b505050505050565b7f4552433732313a20696e76616c696420746f6b656e2049440000000000000000600082015250565b60006138a2601883612a8b565b91506138ad8261386c565b602082019050919050565b600060208201905081810360008301526138d181613895565b9050919050565b7f4552433732313a2061646472657373207a65726f206973206e6f74206120766160008201527f6c6964206f776e65720000000000000000000000000000000000000000000000602082015250565b6000613934602983612a8b565b915061393f826138d8565b604082019050919050565b6000602082019050818103600083015261396381613927565b9050919050565b7f4552433732314d657461646174613a2055524920717565727920666f72206e6f60008201527f6e6578697374656e7420746f6b656e0000000000000000000000000000000000602082015250565b60006139c6602f83612a8b565b91506139d18261396a565b604082019050919050565b600060208201905081810360008301526139f5816139b9565b9050919050565b600081905092915050565b6000613a1282612a80565b613a1c81856139fc565b9350613a2c818560208601612a9c565b80840191505092915050565b60008154613a45816131af565b613a4f81866139fc565b94506001821660008114613a6a5760018114613a7f57613ab2565b60ff1983168652811515820286019350613ab2565b613a88856135ee565b60005b83811015613aaa57815481890152600182019150602081019050613a8b565b838801955050505b50505092915050565b6000613ac78286613a07565b9150613ad38285613a07565b9150613adf8284613a38565b9150819050949350505050565b7f4f776e61626c653a206e6577206f776e657220697320746865207a65726f206160008201527f6464726573730000000000000000000000000000000000000000000000000000602082015250565b6000613b48602683612a8b565b9150613b5382613aec565b604082019050919050565b60006020820190508181036000830152613b7781613b3b565b9050919050565b7f4f776e61626c653a2063616c6c6572206973206e6f7420746865206f776e6572600082015250565b6000613bb4602083612a8b565b9150613bbf82613b7e565b602082019050919050565b60006020820190508181036000830152613be381613ba7565b9050919050565b7f4552433732313a207472616e736665722066726f6d20696e636f72726563742060008201527f6f776e6572000000000000000000000000000000000000000000000000000000602082015250565b6000613c46602583612a8b565b9150613c5182613bea565b604082019050919050565b60006020820190508181036000830152613c7581613c39565b9050919050565b7f4552433732313a207472616e7366657220746f20746865207a65726f2061646460008201527f7265737300000000000000000000000000000000000000000000000000000000602082015250565b6000613cd8602483612a8b565b9150613ce382613c7c565b604082019050919050565b60006020820190508181036000830152613d0781613ccb565b9050919050565b6000613d1982612b32565b9150613d2483612b32565b9250828203905081811115613d3c57613d3b613428565b5b92915050565b7f4552433732313a20617070726f766520746f2063616c6c657200000000000000600082015250565b6000613d78601983612a8b565b9150613d8382613d42565b602082019050919050565b60006020820190508181036000830152613da781613d6b565b9050919050565b7f4552433732313a207472616e7366657220746f206e6f6e20455243373231526560008201527f63656976657220696d706c656d656e7465720000000000000000000000000000602082015250565b6000613e0a603283612a8b565b9150613e1582613dae565b604082019050919050565b60006020820190508181036000830152613e3981613dfd565b9050919050565b7f4e487b7100000000000000000000000000000000000000000000000000000000600052601260045260246000fd5b6000613e7a82612b32565b9150613e8583612b32565b925082613e9557613e94613e40565b5b828204905092915050565b6000613eab82612b32565b9150613eb683612b32565b925082613ec657613ec5613e40565b5b828206905092915050565b6000608082019050613ee66000830187612bc7565b613ef36020830186612bc7565b613f006040830185612c5d565b8181036060830152613f128184612f81565b905095945050505050565b600081519050613f2c81612998565b92915050565b600060208284031215613f4857613f47612962565b5b6000613f5684828501613f1d565b91505092915050565b7f4e487b7100000000000000000000000000000000000000000000000000000000600052603160045260246000fd5b7f4552433732313a206d696e7420746f20746865207a65726f2061646472657373600082015250565b6000613fc4602083612a8b565b9150613fcf82613f8e565b602082019050919050565b60006020820190508181036000830152613ff381613fb7565b9050919050565b7f4552433732313a20746f6b656e20616c7265616479206d696e74656400000000600082015250565b6000614030601c83612a8b565b915061403b82613ffa565b602082019050919050565b6000602082019050818103600083015261405f81614023565b905091905056fea26469706673582212207706c8f25ec58872cdc055ede46161b1ac9c1268b52ee08f29c460723dde154864736f6c63430008100033",
  "immutableReferences": {},
  "source": "// SPDX-License-Identifier: GPL-3.0\npragma solidity >=0.7.0 <0.9.0;\n\nimport \"@openzeppelin/contracts/token/ERC721/extensions/ERC721Enumerable.sol\";\nimport \"@openzeppelin/contracts/access/Ownable.sol\";\n\ncontract NFT is ERC721Enumerable, Ownable {\n  using Strings for uint256;\n\n  string public baseURI;\n  string public baseExtension = \".json\";\n  uint256 public cost = 0.05 ether;\n  uint256 public maxSupply = 10000;\n  uint256 public maxMintAmount = 20;\n  bool public paused = false;\n  bool public isStaked = false;\n  mapping(address => bool) public whitelisted;\n\n  constructor(\n    string memory _name,\n    string memory _symbol,\n    string memory _initBaseURI\n  ) ERC721(_name, _symbol) {\n    setBaseURI(_initBaseURI);\n    mint(msg.sender, 1);\n  }\n\n  // internal\n  function _baseURI() internal view virtual override returns (string memory) {\n    return baseURI;\n  }\n\n  // public\n  function mint(address _to, uint256 _mintAmount) public payable {\n    uint256 supply = totalSupply();\n    require(!paused);\n    require(_mintAmount > 0);\n    require(_mintAmount <= maxMintAmount);\n    require(supply + _mintAmount <= maxSupply);\n\n    if (msg.sender != owner()) {\n        if(whitelisted[msg.sender] != true) {\n          require(msg.value >= cost * _mintAmount);\n        }\n    }\n\n    for (uint256 i = 1; i <= _mintAmount; i++) {\n      _safeMint(_to, supply + i);\n    }\n  }\n\n  function walletOfOwner(address _owner)\n    public\n    view\n    returns (uint256[] memory)\n  {\n    uint256 ownerTokenCount = balanceOf(_owner);\n    uint256[] memory tokenIds = new uint256[](ownerTokenCount);\n    for (uint256 i; i < ownerTokenCount; i++) {\n      tokenIds[i] = tokenOfOwnerByIndex(_owner, i);\n    }\n    return tokenIds;\n  }\n\n  function tokenURI(uint256 tokenId)\n    public\n    view\n    virtual\n    override\n    returns (string memory)\n  {\n    require(\n      _exists(tokenId),\n      \"ERC721Metadata: URI query for nonexistent token\"\n    );\n\n    string memory currentBaseURI = _baseURI();\n    return bytes(currentBaseURI).length > 0\n        ? string(abi.encodePacked(currentBaseURI, tokenId.toString(), baseExtension))\n        : \"\";\n  }\n\n  //only owner\n  function setCost(uint256 _newCost) public onlyOwner {\n    cost = _newCost;\n  }\n\n  function setmaxMintAmount(uint256 _newmaxMintAmount) public onlyOwner {\n    maxMintAmount = _newmaxMintAmount;\n  }\n\n  function setBaseURI(string memory _newBaseURI) public onlyOwner {\n    baseURI = _newBaseURI;\n  }\n\n  function setBaseExtension(string memory _newBaseExtension) public onlyOwner {\n    baseExtension = _newBaseExtension;\n  }\n\n  function pause(bool _state) public onlyOwner {\n    paused = _state;\n  }\n \n function whitelistUser(address _user) public onlyOwner {\n    whitelisted[_user] = true;\n  }\n \n  function removeWhitelistUser(address _user) public onlyOwner {\n    whitelisted[_user] = false;\n  }\n\n  function isclaimable() public {\n    isStaked = true;\n  }\n\n  function ReturnKeccak () external view returns (bytes memory){\n        require(isStaked);\n        bool input = true;\n        return abi.encode(input);\n    }\n}",
  "sourcePath": "/Users/nyinyimyozinhtet/Desktop/SmartContractwithUnitTest/contracts/nftmint.sol",
  "compiler": {
    "name": "solc",
    "version": "0.8.16+commit.07a7930e.Emscripten.clang"
  },
  "schemaVersion": "3.4.9",
  "updatedAt": "2022-11-11T08:15:02.737Z",
  "networkType": "ethereum",
  "devdoc": {
    "kind": "dev",
    "methods": {
      "approve(address,uint256)": {
        "details": "See {IERC721-approve}."
      },
      "balanceOf(address)": {
        "details": "See {IERC721-balanceOf}."
      },
      "getApproved(uint256)": {
        "details": "See {IERC721-getApproved}."
      },
      "isApprovedForAll(address,address)": {
        "details": "See {IERC721-isApprovedForAll}."
      },
      "name()": {
        "details": "See {IERC721Metadata-name}."
      },
      "owner()": {
        "details": "Returns the address of the current owner."
      },
      "ownerOf(uint256)": {
        "details": "See {IERC721-ownerOf}."
      },
      "renounceOwnership()": {
        "details": "Leaves the contract without owner. It will not be possible to call `onlyOwner` functions anymore. Can only be called by the current owner. NOTE: Renouncing ownership will leave the contract without an owner, thereby removing any functionality that is only available to the owner."
      },
      "safeTransferFrom(address,address,uint256)": {
        "details": "See {IERC721-safeTransferFrom}."
      },
      "safeTransferFrom(address,address,uint256,bytes)": {
        "details": "See {IERC721-safeTransferFrom}."
      },
      "setApprovalForAll(address,bool)": {
        "details": "See {IERC721-setApprovalForAll}."
      },
      "supportsInterface(bytes4)": {
        "details": "See {IERC165-supportsInterface}."
      },
      "symbol()": {
        "details": "See {IERC721Metadata-symbol}."
      },
      "tokenByIndex(uint256)": {
        "details": "See {IERC721Enumerable-tokenByIndex}."
      },
      "tokenOfOwnerByIndex(address,uint256)": {
        "details": "See {IERC721Enumerable-tokenOfOwnerByIndex}."
      },
      "tokenURI(uint256)": {
        "details": "See {IERC721Metadata-tokenURI}."
      },
      "totalSupply()": {
        "details": "See {IERC721Enumerable-totalSupply}."
      },
      "transferFrom(address,address,uint256)": {
        "details": "See {IERC721-transferFrom}."
      },
      "transferOwnership(address)": {
        "details": "Transfers ownership of the contract to a new account (`newOwner`). Can only be called by the current owner."
      }
    },
    "version": 1
  },
  "userdoc": {
    "kind": "user",
    "methods": {},
    "version": 1
  }
}