{
  "contractName": "Storage",
  "abi": [
    {
      "inputs": [],
      "name": "name",
      "outputs": [
        {
          "internalType": "string",
          "name": "",
          "type": "string"
        }
      ],
      "stateMutability": "view",
      "type": "function",
      "constant": true
    },
    {
      "inputs": [
        {
          "internalType": "string",
          "name": "_name",
          "type": "string"
        }
      ],
      "name": "setName",
      "outputs": [],
      "stateMutability": "nonpayable",
      "type": "function"
    }
  ],
  "bytecode": "0x608060405234801561001057600080fd5b50610678806100206000396000f3fe608060405234801561001057600080fd5b50600436106100365760003560e01c806306fdde031461003b578063c47f002714610059575b600080fd5b610043610075565b60405161005091906101a6565b60405180910390f35b610073600480360381019061006e9190610311565b610103565b005b6000805461008290610389565b80601f01602080910402602001604051908101604052809291908181526020018280546100ae90610389565b80156100fb5780601f106100d0576101008083540402835291602001916100fb565b820191906000526020600020905b8154815290600101906020018083116100de57829003601f168201915b505050505081565b80600090816101129190610570565b5050565b600081519050919050565b600082825260208201905092915050565b60005b83811015610150578082015181840152602081019050610135565b60008484015250505050565b6000601f19601f8301169050919050565b600061017882610116565b6101828185610121565b9350610192818560208601610132565b61019b8161015c565b840191505092915050565b600060208201905081810360008301526101c0818461016d565b905092915050565b6000604051905090565b600080fd5b600080fd5b600080fd5b600080fd5b7f4e487b7100000000000000000000000000000000000000000000000000000000600052604160045260246000fd5b61021e8261015c565b810181811067ffffffffffffffff8211171561023d5761023c6101e6565b5b80604052505050565b60006102506101c8565b905061025c8282610215565b919050565b600067ffffffffffffffff82111561027c5761027b6101e6565b5b6102858261015c565b9050602081019050919050565b82818337600083830152505050565b60006102b46102af84610261565b610246565b9050828152602081018484840111156102d0576102cf6101e1565b5b6102db848285610292565b509392505050565b600082601f8301126102f8576102f76101dc565b5b81356103088482602086016102a1565b91505092915050565b600060208284031215610327576103266101d2565b5b600082013567ffffffffffffffff811115610345576103446101d7565b5b610351848285016102e3565b91505092915050565b7f4e487b7100000000000000000000000000000000000000000000000000000000600052602260045260246000fd5b600060028204905060018216806103a157607f821691505b6020821081036103b4576103b361035a565b5b50919050565b60008190508160005260206000209050919050565b60006020601f8301049050919050565b600082821b905092915050565b60006008830261041c7fffffffffffffffffffffffffffffffffffffffffffffffffffffffffffffffff826103df565b61042686836103df565b95508019841693508086168417925050509392505050565b6000819050919050565b6000819050919050565b600061046d6104686104638461043e565b610448565b61043e565b9050919050565b6000819050919050565b61048783610452565b61049b61049382610474565b8484546103ec565b825550505050565b600090565b6104b06104a3565b6104bb81848461047e565b505050565b5b818110156104df576104d46000826104a8565b6001810190506104c1565b5050565b601f821115610524576104f5816103ba565b6104fe846103cf565b8101602085101561050d578190505b610521610519856103cf565b8301826104c0565b50505b505050565b600082821c905092915050565b600061054760001984600802610529565b1980831691505092915050565b60006105608383610536565b9150826002028217905092915050565b61057982610116565b67ffffffffffffffff811115610592576105916101e6565b5b61059c8254610389565b6105a78282856104e3565b600060209050601f8311600181146105da57600084156105c8578287015190505b6105d28582610554565b86555061063a565b601f1984166105e8866103ba565b60005b82811015610610578489015182556001820191506020850194506020810190506105eb565b8683101561062d5784890151610629601f891682610536565b8355505b6001600288020188555050505b50505050505056fea26469706673582212209808700420b803115572017b7c3320e0af5bc1d463530430efa1a4afc71e520064736f6c63430008100033",
  "immutableReferences": {},
  "source": "//SPDX-License-Identifier: MIT  \npragma solidity ^0.8.11;  \ncontract Storage {      \n   string public name;      \n   function setName(string memory _name) public {         \n      name = _name;     \n   }  \n}",
  "sourcePath": "/Users/nyinyimyozinhtet/Desktop/SmartContractwithUnitTest/contracts/Storage.sol",
  "compiler": {
    "name": "solc",
    "version": "0.8.16+commit.07a7930e.Emscripten.clang"
  },
  "schemaVersion": "3.4.9",
  "updatedAt": "2022-11-11T08:14:59.727Z",
  "networkType": "ethereum",
  "devdoc": {
    "kind": "dev",
    "methods": {},
    "version": 1
  },
  "userdoc": {
    "kind": "user",
    "methods": {},
    "version": 1
  }
}